:020000040800F2
:10000000C80A0020AD0100086D240008971D0008F3
:100010003524000809030008BD2E00080000000078
:10002000000000000000000000000000352800086B
:100030001D03000800000000792700083728000889
:10004000C7010008C7010008C7010008C701000870
:10005000C7010008C7010008C7010008C701000860
:10006000C7010008C7010008C7010008C701000850
:10007000C7010008C7010008C7010008C701000840
:10008000C7010008C7010008C70100080000000000
:10009000000000000000000000000000C701000890
:1000A000E1280008C7010008C7010008C7010008CF
:1000B000C7010008C7010008C7010008C701000800
:1000C000C7010008C7010008C7010008C7010008F0
:1000D000C7010008B12E0008C70100080000000099
:1000E000C7010008C7010008C701000800000000A0
:1000F000000000000000000000000000C701000830
:1001000000000000C7010008C7010008C70100087F
:1001100000000000000000000000000000000000DF
:10012000C7010008C7010008C7010008C70100088F
:10013000C7010008000000000000000000000000EF
:10014000000000000000000000000000C7010008DF
:10015000C7010008C7010008C7010008C70100085F
:10016000C7010008C70100080000000000000000EF
:10017000000000000000000000000000000000007F
:1001800000000000C701000800000000000000009F
:10019000C7010008DFF810D000F0A4F800480047BD
:1001A00089300008AFF30080C80A00200648804765
:1001B00006480047FEE7FEE7FEE7FEE7FEE7FEE74C
:1001C000FEE7FEE7FEE7FEE7D128000895010008FC
:1001D0002DE9F05F0546002092469B46884606467C
:1001E000814640241BE0284641464746224600F00F
:1001F00069F853465A46C01A914110D31146184621
:10020000224600F050F82D1A67EB01084F462246AF
:100210000120002100F047F817EB00094E41201E95
:10022000A4F10104DFDC484631462A464346BDE8D6
:10023000F09F40EA01039B0703D009E008C9121FA1
:1002400008C0042AFAD203E011F8013B00F8013B90
:10025000521EF9D27047D2B201E000F8012B491EBC
:10026000FBD270470022F6E710B513460A46044653
:100270001946FFF7F0FF204610BD30B50B4601468A
:1002800000202022012409E021FA02F59D4205D335
:1002900003FA02F5491B04FA02F52844151EA2F1DF
:1002A0000102F1DC30BD202A04DB203A00FA02F121
:1002B000002070479140C2F1200320FA03F3194354
:1002C00090407047202A04DB203A21FA02F00021F6
:1002D000704721FA02F3D040C2F120029140084356
:1002E00019467047064C074D06E0E06840F00103F0
:1002F00094E8070098471034AC42F6D3FFF74EFF5E
:100300003C3700085C370008FEE700000248002187
:10031000C16001617047000018000020704772B68C
:10032000FEE7000070B5134D044601206870962169
:10033000084601F0D5FEFFF7E9FF002108460DE071
:1003400000F04CF8BDEEC00A10EE100A01B200F049
:100350005FF8BDEEC00A10EE100A00B2A14201DA49
:10036000A042EDDB0021084601F0BAFE00206870D3
:1003700070BD00001800002001490120087070477E
:100380001800002070B51248017801291ED181782B
:10039000491CC9B28170142918D30E4A00218170FA
:1003A0001268536A1BB25C420B4B44601D686D6A55
:1003B0002DB285604678012E05D1C6683444C460EC
:1003C00004692C44046151621868416270BD0000E8
:1003D0001800002058010020100100200A48DFED1D
:1003E0000B0A90ED030AB8EEC00A20EE200AF2EEE6
:1003F0000A0A80EE201AB6EE000A61EE000AB3EE99
:100400000E1A80EE810A7047180000200000C842D2
:100410000A48DFED0B0A90ED040AB8EEC00A20EEA0
:10042000200AF2EE0A0A80EE201AB6EE000A61EE09
:10043000000AB3EE0E1A80EE810A70471800002001
:100440000000C842014890ED010A704734000020C6
:100450002DE9F0472E4C2078012851D1A0680027C3
:10046000401C3E46A0600A284ADB0020DFF8A4803A
:100470004FF48059A0604946404600F09DF904F1D0
:1004800012054FF400512870404600F095F968704D
:100490004FF48041404600F08FF9A8704FF40041BE
:1004A000404600F089F9DFF87080E8704FF4006191
:1004B000404600F081F928714946404600F07CF939
:1004C00068710020A91F2A5C012A04D10A5C761CED
:1004D0003A44F6B257B2401CC0B20628F3D38EB1EC
:1004E00000EE107A052EF8EEC00A00EE106AB8EEA3
:1004F000401A80EE810A84ED010A01D30120607068
:10050000BDE8F0879FED050A84ED010AF8E70000D9
:1005100034000020000402400000024000000000FF
:100520002DE9F0410446876D00F050F9064694F835
:1005300035000025022806D08020606584F83450FC
:100540000120BDE8F0812068016821F016010160FA
:100550002068416921F080014161206C08B9A06CDC
:1005600020B12068016821F008010160206801685D
:1005700021F0010101600CE000F028F9801B052842
:1005800007D920206065032084F8350084F83450B2
:10059000D7E720680068C007EED194F85C103F20D0
:1005A0008840B860012084F8350084F83450002079
:1005B000C7E790F83510022903D08021416501205A
:1005C0007047052180F835100068016821F00101AD
:1005D00001600020704700002DE9F84FDFF8B8A156
:1005E0000022012403254FF00F090AF1040BAAF1A0
:1005F000040E00BF0B6804FA02F63340B34273D115
:100600000F7907F00307012F01D0022F16D1876859
:100610004FEA420805FA08FC27EA0C07D1F80CC09B
:100620000CFA08FC4CEA070CC0F808C04768B7434E
:100630000E79C6F3001696403E4346600E79F643A7
:10064000B6070DD0C768560005FA06FC27EA0C0766
:10065000D1F808C00CFA06FC4CEA070CC0F80CC034
:100660000E7906F00306022E10D1D60800EB86089C
:10067000D8F8206057074FEAD76C09FA0CF7BE4349
:100680000F6907FA0CF73743C8F8207006684FEA7D
:10069000420C05FA0CF7BE430F7907F0030707FA7F
:1006A0000CF7374307604E6816F4403F6DD03B4E61
:1006B000376847F480473760366822F0030706F44E
:1006C00080460096364E07EB060CDCF80868970764
:1006D0003F0F09FA07F826EA0806DFF8C880404508
:1006E00003D14FF000081EE04FE0DFF8BC8040452A
:1006F00002D14FF0010816E0DFF8B080404502D18A
:100700004FF002080FE0DFF8A880404502D14FF01B
:10071000030808E0DFF89C80404502D14FF0040850
:1007200001E04FF0070808FA07F848EA0608CCF895
:100730000888DAF800605746D1F804C09E435FEAA3
:10074000CC2C00D51E433E60DBF800605F46D1F83C
:1007500004C09E435FEA8C2C00D51E433E60DEF849
:1007600000607746D1F804C09E435FEA8C3C00D518
:100770001E433E60084F083F3E68D1F804C09E43C8
:100780005FEACC3C00D51E433E60521C102AFFF4A9
:1007900031AFBDE8F88F0000083C0140443802400A
:1007A0000030014000000240000402400008024006
:1007B000000C0240001002400069084000D00120F7
:1007C00070470AB1816170470904FBE701488068FE
:1007D000704700000400002070B5040025D094F894
:1007E0003D00002520B984F83C50204600F04EF929
:1007F000242084F83D002068016821F00101016097
:100800002068016841F4004101602068016821F41A
:100810000041016000F0A4FA4D4A6168914201D89C
:100820004C4900E04C49884201D2012070BD4B493F
:100830002368B0FBF1F15E6826F03F060E435E6070
:100840006368934206D94FF4967359434FF47A7311
:10085000B1FBF3F12368491C1E6A26F03F063143C1
:1008600019626168914210D84900401EB0FBF1F254
:10087000521CC2F30B02042A01D2042022E0B0FB76
:10088000F1F0401CC0F30B001CE0A268F2B301EBD6
:10089000C10303EB0116431EB3FBF6F35B1C43F4E9
:1008A00080431B0549D092B301EBC10202EB011159
:1008B000401EB0FBF1F0401CC0F30B0040F4804040
:1008C00040F400402168CA694CF6FF739A43104314
:1008D000C861D4E9071001432068026822F0C00211
:1008E00011430160D4E9030101432068826848F2A2
:1008F000FF339A4311438160D4E90501084321681D
:10090000CA6822F0FF021043C86001E00EE016E062
:100910002068016841F0010101602564202084F80D
:100920003D00256384F83E50002070BD01EB410678
:10093000431EB3FBF6F35B1CB3E70120C2E701EBF8
:100940004101401EB0FBF1F0401CC0F30B00B7E7C3
:10095000A086010080841E0000093D0040420F0077
:100960002DE9F84F1F4690468A460446DDF8289048
:10097000FFF72CFF054694F83D0020287FD119236E
:10098000012240492046009501F098FA002876D1CE
:1009900094F83C00012872D0012084F83C002068C3
:1009A0000168C90703D1016841F0010101602068B5
:1009B000016821F400610160212084F83D001020CD
:1009C00084F83E0000262664C4F824806785608D84
:1009D00020852D48E0622B464A465146204601F0CC
:1009E000F3F990B9206841698069009036E02A46A1
:1009F0004946204601F008FB50B1206C042804D180
:100A00002068016841F4007101600120BDE8F88FA1
:100A1000606A216800780861606A401C6062618DCC
:100A2000491E6185218D491E89B22185226853693D
:100A3000DB435B070BD451B100781061606A401C46
:100A40006062608D401E6085208D401E20852A4694
:100A50004946204601F006FA0028CED1208D002814
:100A6000C5D154F83D0B016841F4007101602020AC
:100A700004F81E09E67766770020C7E7FFE7022043
:100A8000C4E70000020010000000FFFF10B586B0B0
:100A9000044614216846FFF7E5FB144920688842A4
:100AA00021D113480021026842F00202026000686E
:100AB00000F0020005904FF4407000901220CDE944
:100AC0000101032003900420049069460948FFF7C0
:100AD00083FD07481030016841F40011016000688F
:100AE00000F40010059006B010BD00000054004056
:100AF0003038024000040240024881680278114404
:100B000081607047040000200B4810B5016841F473
:100B100000710160016841F480610160016841F485
:100B200080710160032000F06FF80F2000F006F8DC
:100B300000F024F8002010BD003C024070B50D4DBF
:100B400004464FF47A712878B1FBF0F00A4909683D
:100B5000B1FBF0F000F00CFB48B9102C07D20022DA
:100B60002146501E00F030F800206C6070BD01205E
:100B700070BD000004000020100000200A4808B5E5
:100B8000016841F480410160006800F480400090F9
:100B90000548001F016841F080510160006800F0C5
:100BA0008050009008BD000044380240002809DB56
:100BB00000F01F02012191404009800000F1E02077
:100BC000C0F8001170470000F0B40E4B1B680C46D3
:100BD000C3F30223C3F10705042D00D90425191D11
:100BE000072901D2002300E0DB1E012606FA05F1E9
:100BF000491E214099409E40761E16403143F0BC6C
:100C000002F072B90CED00E0064900F00702086836
:100C10004FF6FF03184040EA0220034A10430860E1
:100C2000704700000CED00E00000FA052DE9F047E8
:100C30000E46050065D0DFF81481D8F80000F7B241
:100C400000F00700B04207D288F80070D8F8000022
:100C500000F00700B04254D128683D4C810712D5FE
:100C6000400703D5206840F4E05020602878000752
:100C700003D5206840F4604020602068A96820F017
:100C8000F000084320602878C0072DD030496868FC
:100C90000839012812D0022813D0032811D009687E
:100CA000890700292DDA216821F003010143216021
:100CB000FFF78CFD814641F2883A0EE0096889030E
:100CC000EFE709688901ECE7FFF780FDA0EB090178
:100CD000514502D90320BDE8F0872068696800F01B
:100CE0000C00B0EB810FEFD1D8F80010404601F0B6
:100CF0000701B14207D90770006800F00700B04251
:100D000001D00120E7E72878400705D52068E96889
:100D100020F4E050084320602878000706D52068BA
:100D2000296920F4604040EAC100206000F038F8F2
:100D30002168084AC1F30311515CC84006490860A4
:100D400006480068FFF7FAFE0020C4E7003C0240B6
:100D500008380240A83200081000002008000020D7
:100D60000448054900680968044AC1F38221515CBE
:100D7000C84070471000002008380240B832000810
:100D80000448054900680968044AC1F34231515CCE
:100D9000C84070471000002008380240B8320008F0
:100DA000154810B5006810F00C02144813D014490F
:100DB000042A0FD0082A0ED10F4C241F2268236862
:100DC00002F03F025B0207D52068C0F38810A0FB49
:100DD000010106E0084610BD2168C1F38811A1FB9E
:100DE00000010023FFF7F4F92168C1F30141491C18
:100DF0004900B0FBF1F010BD083802400024F400B7
:100E000040787D012DE9F84F04006ED02078DFF89E
:100E10004C93C007A9F104054AD009F10400016808
:100E2000C1F38101012908D00068C0F381000228C4
:100E30000AD1D9F80000400206D52868800337D5CA
:100E400060680028E1D033E06068B0F5803F10D0E2
:100E5000B0F5A02F286810D020F4803028602868D2
:100E600020F4802028606068A8B1FFF7AFFC064638
:100E70000DE0286840F48030F4E740F480202860DA
:100E8000F7E700BFFFF7A2FC801B642873D828682F
:100E90008003F7D50CE0FFF799FC064605E000BF9C
:100EA000FFF794FC801B6428F0D828688003F7D4EF
:100EB0002078DFF8AC8280074FF0000A3ED5A748C3
:100EC000001D016811F00C0F08D00068C0F381000C
:100ED00002280BD1D9F80000400207D42868800707
:100EE00016D5E068012800D112E033E1E068B8B11E
:100EF0000120C8F80000FFF769FC064605E000BFC6
:100F0000FFF764FC801B0228C0D828688007F7D54B
:100F10002868216920F0F80040EAC10028600DE04F
:100F2000C8F800A0FFF752FC064604E0FFF74EFCAD
:100F3000801B02281FD828688007F7D42078000774
:100F400022D5864F87486169703771B101210160F0
:100F5000FFF73CFC064604E0FFF738FC801B022844
:100F600009D838688007F7D50EE0C0F800A0FFF771
:100F70002DFC064605E082E0FFF728FC801B0228D6
:100F80007DD838688007F7D42078400768D5DFF827
:100F9000CCB100270BF13C0BDBF80000C0000BD4F8
:100FA000DBF8001041F08051CBF80010DBF80000B6
:100FB000012700F0805000906B4E3068C00510D4BF
:100FC000306840F480703060FFF700FC009005E06E
:100FD000FFF7FCFB0099401A022850D83068C00582
:100FE000F6D55E4EA0686C3601280FD00528306813
:100FF00010D020F001003060306820F00400306034
:10100000A068B8B1FFF7E2FB00900FE0306840F055
:101010000100F4E740F004003060F7E7FFF7D6FB8B
:101020000099411A41F28830814266D830688007C1
:10103000F4D50EE0FFF7CAFB009007E0FFF7C6FB10
:101040000099411A41F28830814256D830688007B1
:10105000F4D42FB1DBF8001021F08051CBF8001050
:10106000A069C8B33D49091D0968C1F3810102297E
:101070004AD00228504607D0C8F8600000E03CE0A3
:10108000FFF7A4FB04463BE04746C8F86000FFF7C3
:101090009DFB064605E000BFFFF798FB801B02287A
:1010A0002BD828688001F7D4D4E907010843A16A46
:1010B0002E4A490802EB0141626A41EA8211084363
:1010C00094F82C1040EA0161C9F80010012038663C
:1010D000FFF77CFB044606E03EE000BFFFF776FB2F
:1010E000001B022809D828688001F7D534E000BF2A
:1010F000FFF76CFB001B022802D90320BDE8F88F24
:1011000028688001F4D427E00128F7D0D9F800003E
:10111000E26900F4800191421CD1226A00F03F0193
:10112000914217D147F6C071626A0140B1EB821F4C
:1011300010D1A26A4FF0FF3300F4403103EB5202AA
:10114000B1EB024F06D194F82C1000F07060B0EBB8
:10115000016F01D00120D1E70020CFE70438024021
:1011600000004742800E4742007000400000FFFF31
:1011700010B5401EB0F1807F01D3012010BD4FF0AB
:10118000E02460610F21601701F0AEFE0020A06135
:1011900007202061002010BD7047704770B590F89F
:1011A0003C20012A2CD0012480F83C40022280F807
:1011B0003D2003685A689D6822F070060A68324331
:1011C0005A60104B02689A420ED0B2F1804F0BD099
:1011D0000D4B9A4208D00D4B9A4205D00C4B9A42C7
:1011E00002D00C4B9A4204D1496825F08003194380
:1011F000916080F83D40002180F83C10084670BDA9
:10120000022070BD000001400004004000080040C2
:10121000000C00400040014010B5040003D094F8D9
:101220003D0010B107E0012010BD002084F83C0013
:10123000204600F01FF8022084F83D00211D2068A0
:1012400001F054FB012084F8460084F83E0084F845
:101250003F0084F8400084F8410084F8420084F89C
:10126000430084F8440084F8450084F83D000020E1
:1012700010BD000008B500680B49884212D10B4828
:10128000016841F4803101600068002200F4803080
:10129000009011461820FFF797FCBDE80840182081
:1012A000FFF784BC08BD0000004001404438024004
:1012B00090F83D10012901D001207047022180F8EB
:1012C0003D100168CA6842F00102CA6000680E4918
:1012D00088420ED0B0F1804F0BD00C49884208D024
:1012E0000B49884205D00B49884202D00A498842FE
:1012F00004D1816801F00701062903D0016841F09B
:10130000010101600020704700000140000400401E
:1013100000080040000C00400040014070B5044649
:1013200090F83C000025012817D0012684F83C6085
:10133000022084F83D002068826822F0770222F4BF
:101340007F4282600868502838D00DDC20284FD0BA
:1013500005DC90B3102811D14AE0022070BD30287E
:1013600046D040280AD13BE060282FD070280DD00D
:10137000B0F5805F03D0B0F5005F12D0012584F88E
:101380003D60002084F83C00284670BDCB68D1E960
:101390000121206801F007FB2068816841F0770196
:1013A00009E0CB68D1E90121206801F0FCFA20684E
:1013B000816841F480418160E1E719E0CA684968C9
:1013C000206801F0A5FB5021206806E0CA68496842
:1013D000206801F0AEFB6021206801F0EEFACEE754
:1013E000CA684968206801F093FB40212068F4E74F
:1013F000226801461046F0E72DE9F0410D46040051
:1014000003D094F83D0018B108E00120BDE8F08158
:10141000002084F83C00204600F040F8022084F8C8
:101420003D002068816844F2070291438160211DDC
:10143000206801F05BFA226890689169166A2B684F
:10144000AF69034340F20330814341EA0721A868B2
:10145000EF6908434FF6FC418843E96840EA0720FA
:10146000014328692F6A000140EA07300843696890
:101470006D6926F0AA0646EA05152943936022689D
:10148000906154F8460B0162012004F81F09E075D1
:101490002076E0762077A0750020B7E730B587B0DA
:1014A000044614216846FEF7DDFE204824681E4DE0
:1014B00000221E4910380223AC4216D10C6844F0B9
:1014C00004040C60096801F004010591016841F011
:1014D000020101600068694600F002000590C0202A
:1014E0000090CDE90132124818E0124DAC4219D1FA
:1014F0000C6844F008040C60096801F008010591CB
:10150000016841F0010101600068694600F00100D6
:10151000059003200090CDE901320748CDE903236F
:10152000FFF75AF807B030BD0008004040380240CD
:1015300000040240000C00400000024070B590F82A
:101540003E60044690F83F5090F8423090F84320B7
:10155000022021B104290ED0012E1BD114E0012E4E
:1015600018D1012B16D184F83E0084F842000122E4
:101570000021206820E0012D0CD1012A0AD184F835
:101580003F0084F8430014E0012D03D1012B01D169
:10159000012A01D0012070BD84F83E0084F83F008C
:1015A00084F8420084F8430001220021206801F001
:1015B000EDF901220421206801F0E8F920680168B2
:1015C00041F001010160002070BD70472DE9F0413C
:1015D00004460068C66805694FF00007A90713D5DF
:1015E000B10711D5F91E01610120207720688069BB
:1015F0008007204602D0FFF7E8FF04E000F0BAF8C9
:10160000204600F05DF92777680716D5700714D5D6
:1016100021686FF00400086102202077206880694B
:1016200010F4407F204602D0FFF7CFFF04E000F027
:10163000A1F8204600F044F92777280715D5300790
:1016400013D521686FF00800086104202077206816
:10165000C0698007204602D0FFF7B7FF04E000F022
:1016600089F8204600F02CF92777E80616D5F00611
:1016700014D521686FF010000861082020772068D9
:10168000C06910F4407F204602D0FFF79EFF04E0BF
:1016900000F070F8204600F013F92777E80708D02B
:1016A000F00706D021686FF001000861204600F0C5
:1016B00061F9280608D5300606D521686FF080004C
:1016C00008612046FFF768FD680608D5700606D554
:1016D00021686FF040000861204600F05DF9A8061F
:1016E0000AD5B00608D521686FF0200008612046B1
:1016F000BDE8F041FFF751BDBDE8F08170B586B09F
:10170000044614216846FEF7ADFD2068B0F1804F15
:1017100027D115480024016841F0010101600168EA
:1017200001F001010591016841F0020101600068CA
:10173000022500F00200059020200090CDE9015420
:101740000126CDE9034669460848FEF745FF082013
:101750000090CDE90154CDE9034669460448FEF7FF
:101760003BFF06B070BD0000303802400000024070
:1017700000040240704770B5044690F83C00002613
:101780000D4601280FD0012084F83C006AB1042ADC
:101790001DD0082A2FD00C2A3FD00126002084F823
:1017A0003C00304670BD022070BD206801F00EF98B
:1017B0002068816941F0080181612068816921F018
:1017C00004018161206881692A69114311E0206860
:1017D00001F024F92068816941F400618161206889
:1017E000816921F480618161206881692A6941EA07
:1017F00002218161D2E7206801F03CF92068C169CB
:1018000041F00801C1612068C16921F00401C16192
:101810002068C1692A69114311E0206801F056F976
:101820002068C16941F40061C1612068C16921F487
:101830008061C1612068C1692A6941EA0221C161F0
:10184000ACE710B5040003D094F83D0010B107E0F8
:10185000012010BD002084F83C00204600F01EF856
:10186000022084F83D00211D206801F03FF801208E
:1018700084F8460084F83E0084F83F0084F8400075
:1018800084F8410084F8420084F8430084F844005E
:1018900084F8450084F83D00002010BD08B50068BC
:1018A000B0F1804F08D10548016841F001010160A5
:1018B000006800F00100009008BD000040380240C0
:1018C0007047000010B50446022249B104290ED029
:1018D000082913D094F84100012816D0012010BD2A
:1018E00094F83E000128F9D184F83E200FE094F8E6
:1018F0003F000128F2D184F83F2008E094F840002E
:101900000128EBD184F8402001E084F84120012235
:10191000206801F03BF812492068884203D1426CEC
:1019200042F400424264206888420ED0B0F1804FF9
:101930000BD00C49884208D00B49884205D00B498E
:10194000884202D00A49884204D1816801F0070127
:10195000062903D0016841F001010160002010BD9B
:10196000000001400004004000080040000C00405E
:101970000040014010B500680649884209D100F0D6
:1019800093FBFEF765FDFEF7FDFCBDE8104000F09F
:10199000FDBE10BD00400140704770477047000019
:1019A000F8B5016804460868CA684B6910F00F0F63
:1019B0004FF0000559D003F0010602F49077374349
:1019C00065D0C10705D0D10503D5616C41F0010197
:1019D0006164410705D5D90703D0616C41F002016C
:1019E0006164810705D5D90703D0616C41F004011A
:1019F0006164010707D502F02001314303D0616C17
:101A000041F008016164616C00293AD0800604D578
:101A1000900602D5204601F047F920684069616CC4
:101A2000C0F38010090700D460B3204601F015F917
:101A300020684069400621D52068143050E8001F16
:101A400021F0400140E80012002AF5D1E06BA8B176
:101A500072490165E06BFEF7ACFD002811D0E06B28
:101A6000016D01B0BDE8F040084783060FD593062D
:101A70000DD52046BDE8F84001F016B92046FFF725
:101A80008DFFF8BD2046FFF789FF6564F8BD266B22
:101A90002023012E7ED1C6067CD5D6067AD50868CD
:101AA0004868009048694FF0020640064DD5E26B49
:101AB000106840684FF480770004000C3AD0A18D84
:101AC000814237D9E085D069B8422DD020680C30EA
:101AD00050E8001F21F4807140E80012002AF5D17F
:101AE0002068143050E8001F21F0010140E8001286
:101AF000002AF5D12068143050E8001F21F0400181
:101B000040E80012002AF5D184F8423025632068AD
:101B10000C3050E8001F21F0100140E80012002AAC
:101B2000F5D1E06BFEF7FCFC6663A08DE18D401AF9
:101B300081B206E0A18D8142A8D1D069B842A5D179
:101B400066632046FFF729FFF8BDA08DE18D401A9E
:101B500081B2E08D0028F7D00029F5D020680C3044
:101B600050E8002F22F4907240E80027002FF5D1B2
:101B70002068143050E8002F22F0010240E80027CE
:101B8000002FF5D184F84230256320680C3050E8EE
:101B9000002F00E006E022F0100240E80023002BB6
:101BA000F3D1CDE705062BD5150629D594F84100CC
:101BB0002128C9D1A068B0F5805F01D12069B0B1FA
:101BC000206A411C2162216800784860E08C401E38
:101BD0000004000CE084B7D12068C16821F08001C6
:101BE000C1602068C16841F04001C160F8BD206A51
:101BF0000088C0F308004860206A801C2062E5E786
:101C00004006F3D55006F1D5CA68204622F04002BE
:101C1000CA6084F8413000F0BDF8F8BD4D2C0008D2
:101C200070B5040004D094F84100002510B106E01E
:101C3000012070BD84F84050204600F023F8242095
:101C400084F841002068C16821F40051C160204639
:101C500001F08CF82068016921F49041016120684D
:101C6000416921F02A0141612068C16841F40051B5
:101C7000C1606564202084F8410084F842006563F7
:101C8000002070BD10B586B0044614216846FEF7EA
:101C9000E9FA18492068884229D1174800210268CA
:101CA00042F010020260006800F010000590124837
:101CB0001438026842F001020260006800F001007E
:101CC00005904FF4C06000900220CDE9010103208F
:101CD00003900720049069460848FEF77DFC002227
:101CE00011462520FEF770FF2520FEF75FFF06B0A6
:101CF00010BD0000001001404438024000000240C6
:101D000090F84230202B01D00220704721B11AB147
:101D10000023036301F0B0B8012070471A4930B4C2
:101D200088422ED1194A0023012411780225901EE1
:101D3000302904D0312904D0322904D004E00370C2
:101D400002E0047000E005705178114A302904D097
:101D5000312906D0322908D00AE0417842F82130F2
:101D600006E0417842F8214002E0417842F82150F3
:101D70004178491C417030BC022204490248FFF7F7
:101D8000BFBF30BC70470000E80100200200002007
:101D9000B40600207047FEE701684A69D243520545
:101DA0000FD46FF480624A61002140F8301F202276
:101DB00042738173026942F00402026101730120DF
:101DC0007047002070470000F8B50446C06A1E4600
:101DD0000D461746082807D0012805D010F5803F8A
:101DE00002D0206B122804D12068016841F4807170
:101DF0000160134600224FF001112046009600F0CA
:101E00005DF840B120680068C00502D54FF400704D
:101E100020640320F8BD2069B0F5804F0ED0062065
:101E2000216800EAD51040F0F000086133463A46D8
:101E30000B49204600F08AF878B902E005F0FE0070
:101E400000E0E8B221680861054933463A46891F37
:101E5000204600F07BF80028DCD00120F8BD00000F
:101E60000800010070B516460D4604461EE02046E7
:101E7000FFF792FF08B1012070BD681C16D0FEF775
:101E8000A5FC801BA84200D885B920684069C043E2
:101E900040070BD5002044F8300F20216173A07358
:101EA000216941F0200121612073E4E72068406945
:101EB000C0434007DBD4002070BD00002DE9F0478F
:101EC000984617460D460446C1F30746DDF82090B4
:101ED0002AE000BFB8F1FF3F26D0FEF777FCA0EB69
:101EE0000901414502D8B8F1000F1DD12068012E2B
:101EF00016D0806925EA00000004000C12D00020F2
:101F0000B84211D1002044F8300F20216173A07332
:101F1000216941F02001216120730120BDE8F08793
:101F20004069E7E70120EBE72068012E0AD08069CD
:101F300025EA00000004000C06D00020B842C9D0F9
:101F40000020EBE74069F3E70120F7E72DE9F047D0
:101F5000984616460D4604464FF000094FF0200AF9
:101F6000C1F3074723E020684069C043400515D40A
:101F70002068016841F40071016021686FF480609D
:101F80004861C4F8309084F83DA084F83E90216CFC
:101F900041F00401216484F83C9021E0701C06D0DB
:101FA000FEF714FCA0EB0800B04203D816B1012FD5
:101FB0001FD021E02068012F15D0806925EA00009C
:101FC0000004000C18D000BF44F8309F84F80DA026
:101FD00084F80E90216941F02001216184F80C9071
:101FE0000120BDE8F087406925EA00000004000CEC
:101FF000EAD12068406901E02068806925EA000094
:102000000004000CAFD1ECE770B516460D4604464F
:102010001EE02046FFF7C0FE08B1012070BD681C1D
:1020200016D0FEF7D3FB801BA84200D885B92068E4
:102030004069C04300060BD5002044F8300F202132
:102040006173A073216941F0200121612073E4E7ED
:1020500020684069C0430006DBD4002070BD00004A
:102060000249002208790A71704700002C00002004
:1020700010B5094C4FF480712046FEF79DFB30B13E
:1020800080212046FEF798FB18B1002010BD0120EA
:1020900010BD022010BD00000000024001490120D7
:1020A000087070472C00002010B50C4C20780128D7
:1020B00012D16078401CC0B2607014280CD300208C
:1020C0006070A078E070FFF7D3FFA070002803D104
:1020D000E078002800D0207110BD00002C00002006
:1020E00070B51A4E0D46041E06DD0122022130464F
:1020F000FEF767FB002205E0002202213046FEF7D2
:1021000060FB012201213046FEF75BFB002C00DA68
:1021100064420F4E306884630E4C002D06DD0122B0
:1021200010212046FEF74DFB002205E00022102181
:102130002046FEF746FB012208212046FEF741FB20
:10214000002D00DA6D423068456370BD0004024026
:10215000C800002000000240F0B587B01421684696
:10216000FEF780F829480024016841F0040101606D
:10217000016801F004010591016841F080010160EE
:10218000016801F080010591016841F001010160E1
:10219000016801F001010591016841F0020101604F
:1021A00000681B4E00F00200059000221821304606
:1021B000FEF707FB174F002203213846FEF701FB0D
:1021C000182000900125CDE901546946304603945A
:1021D000FEF702FA4FF4CC508DE8310069463046E4
:1021E000FEF7FAF903200090CDE90154694638461C
:1021F0000394FEF7F1F94FF470408DE83100694621
:102200003846FEF7E9F907B0F0BD0000303802406B
:1022100000000240000402400D4810B50B49016067
:102220000C49416000214FF480428160C0E90312F3
:1022300041618161C1610162FEF7CEFA002803D0DD
:10224000BDE81040FEF76BB810BD00000054004020
:1022500074000020A086010010B58AB00024079405
:102260001C2168460894FDF7FDFF1A484FF0804195
:1022700001605321C0E9011440F2E731C0E90314C1
:102280008461FFF7DEFA08B1FEF749F8079407A961
:1022900010480894FEF782FF08B1FEF740F860206E
:1022A000CDE900040294002269460A480494FFF72D
:1022B00062FA08B1FEF733F8042269460548FFF7D1
:1022C0005AFA08B1FEF72BF80248FFF717FA0AB0DE
:1022D00010BD0000C800002010B58CB02421684655
:1022E000FDF7C0FF00241648099414490A94C0E978
:1022F00000144FF6FF71C0E90241046184610320BC
:10230000CDE900040120CDE902040F210491CDE9BB
:102310000540CDE9074169460948FFF76DF808B166
:10232000FDF7FDFF099409A905480A94FEF736FF59
:10233000002801D0FDF7F3FF0CB010BD00080040ED
:102340001001002010B58CB024216846FDF78AFFEB
:1023500000241648099414490A94C0E90014611E27
:10236000C0E90241046184610320CDE90004012039
:10237000CDE902040F210491CDE90540CDE90741E3
:1023800069460A48FFF738F808B1FDF7C8FF099415
:1023900009A906480A94FEF701FF002801D0FDF7BD
:1023A000BEFF0CB010BD0000000C00405801002022
:1023B0001FB5002110480091019102910D4A03912F
:1023C00002605322C0E9012140F2E732C0E9032153
:1023D0008161FEF721FF08B1FDF7A1FF4FF48050A6
:1023E000009069460448FEF799FF002801D0FDF7E8
:1023F00096FF1FBD00400140A00100200C4810B511
:102400000A4901604FF4E1314160002181600C22F2
:10241000C160C0E904128161C161FFF701FC0028BD
:1024200003D0BDE81040FDF77ABF10BD0010014099
:10243000E8010020FEE7000010B500210848FFF782
:1024400041FA04210648FFF73DFA3C210548FFF711
:1024500075F8BDE810403C210348FFF76FB8000055
:10246000C80000201001002058010020FEE710B530
:10247000AE2000F095F8202000F092F8102000F037
:102480008FF8B02000F08CF8C82000F089F8002008
:1024900000F086F8102000F083F8402000F080F86B
:1024A000812000F07DF8DF2000F07AF8A12000F014
:1024B00077F8A62000F074F8A82000F071F83F200B
:1024C00000F06EF8A42000F06BF8D32000F068F85C
:1024D000002000F065F8D52000F062F8F02000F050
:1024E0005FF8D92000F05CF8222000F059F8DA20DB
:1024F00000F056F8122000F053F8DB2000F050F8FE
:10250000202000F04DF88D2000F04AF8142000F053
:1025100047F800F007F800F00BF9BDE81040AF20D5
:1025200000F03EB84FF480610148FDF79BBE00000B
:10253000B10200203CB51C78059DCDE900455D68E1
:10254000E41D5B78E408203A14FB02F203FB02521C
:1025500000F086F83CBD2DE9F8411E461546884638
:102560000446079F09E03346414620460097FFF79F
:10257000E1FF70786D1C2044C4B22A78002AF2D1A1
:10258000BDE8F88108B54FF0FF3200920B460246D5
:1025900078210248FEF7E4F908BD0000740000202D
:1025A0000249487002210148FFF7ECBF16000020E5
:1025B0002DE9FC4180460720CDE9000301F0070426
:1025C000CD08164602FA04F01F46C2B22346414621
:1025D000284600F089F8002C0CD0601EC0B2CDE96E
:1025E0000007C4F1080026FA00F2681C00234146E7
:1025F00000F07AF8BDE8FC812DE9FC4301F0070604
:102600001446CD089846814601F0070106EB080202
:1026100004FA01F0099F082A16D90721CDE900170D
:10262000C2B233464946284600F05EF808EB060081
:102630000938C0B2CDE90007C6F1080024FA00F25B
:10264000681C0023494607E0521ED1B2CDE90017AD
:10265000C2B233464946284600F046F8BDE8FC833E
:102660002DE9FF4F82B01C460F989346C60800F034
:10267000070088460027019018E0029800250BEB20
:10268000070A00EB07090DE015FB04F111F80A2019
:1026900008EBC500C1B209F0FF00109BFFF788FFEF
:1026A0006D1CEDB2B542EFD37F1CFFB2A742E4D35D
:1026B0000198002815D004FB06F7002508EBC60694
:1026C0000DE010980090791902981BF80120284419
:1026D000F1B2C0B2019BFFF78FFF6D1CEDB2A542B6
:1026E000EFD306B0BDE8F08FF0B50828DDE905644A
:1026F00019D2802917D20CB1D243D2B2FF25761C51
:1027000005FA06F6C3F10803084F46EA0204DD4065
:1027100007EBC017044B785CB2432C43AA4320401C
:102720001A7010437854F0BD14000020B10200204C
:1027300070B5104D40200024287005F1810600BFBF
:1027400004F1B000C0B2FFF72BFF0020FFF728FF15
:102750001020FFF725FF06EBC4118022681CFDF74F
:1027600068FD81210348FFF70DFF641CE4B2082CCB
:10277000E6D370BD300200207047000002490020FF
:1027800008700146FFF7ACBC4C00002010B5174C98
:102790002078012829D16078401CC0B260701428CC
:1027A00023D300206070FDF74DFED4ED020A70EED9
:1027B000800AC4ED020AF2EE040A60EE200A94EDEB
:1027C000010ABDE81040B8EEC01AB8EEC00A31EEFA
:1027D000601A30EE200ABDEEC11ABDEEC00A11EE3D
:1027E000101A10EE100AFFF77BBC10BD4C00002041
:1027F000024901220A704860704700004C00002026
:10280000074A00211170084602F112031954401CB6
:102810000628FBDB9FED030A82ED010A70470000EA
:1028200034000020000000000149012008707047BA
:10283000340000207047FEF75FB9000030B593B058
:1028400030216846FDF70EFD14210CA8FDF70AFDA6
:102850001D480025016841F080510160006800F0CA
:10286000805011901948016821F4404141F4004121
:1028700001600068022400F44040119001200090A3
:10288000000401908001CDE9064019200890A8209D
:10289000CDE9090404200B906846FEF7B3FA08B1AD
:1028A00072B6FEE70CA90F2081E831004FF480508A
:1028B000CDE90F0502210CA8FEF7B8F9002801D0D8
:1028C00072B6FEE713B030BD4038024000700040E1
:1028D0000248016841F470010160704788ED00E032
:1028E0000148FEF773BE0000A0010020F0B50268A9
:1028F0001F4B204C204D214E4FF0804C984207D06A
:10290000604505D0A04203D0A84201D0B04203D117
:1029100022F070074A683A43984210D060450ED0C2
:10292000A0420CD0A8420AD0B04208D0144CA04219
:1029300005D0144CA04202D0134CA04203D122F483
:102940004074CA6822434C6922F0800222438C689A
:10295000C4620C688462984201D10969016301680C
:1029600041F004010160012141610260F0BD0000FD
:10297000000001400004004000080040000C00403E
:1029800000400140004401400048014010B501F002
:102990001F030121046A99408C430462016A9A4032
:1029A0001143016210BD10B5846842EA032224F489
:1029B0007F440A432243826010BD826822F0700285
:1029C0000A4342F0070181607047000030B5036A96
:1029D000026A22F0010202624268846924F07305EF
:1029E0000C682C4323F002058B682B430A4DA84248
:1029F0000BD123F00805CB6822F440722B434D69BC
:102A000023F0040315438A692A43426084614968BC
:102A10004163036230BD00000000014030B5026A2E
:102A2000036A23F010030362436884690D6824F489
:102A3000E64444EA05248D6822F0200242EA0512A9
:102A40000B4DA8420ED1CD6822F0800242EA051259
:102A50004D6923F4406343EA85038D6922F0400207
:102A600043EA85034360846149688163026230BD43
:102A70000000014030B5036A026A22F480720262EB
:102A80004268C46923F4007324F073050C682C4376
:102A90008D6843EA05230C4DA8420ED1CD6823F47E
:102AA000006343EA05234D6922F4405242EA0512CD
:102AB0008D6923F4806342EA05124260C46149686B
:102AC000C163036230BD00000000014030B5046AFC
:102AD000026A22F4805202624268C3690D6823F4DC
:102AE000E64343EA05238D6824F4005444EA0534A0
:102AF000064DA84204D14D6922F4804242EA851273
:102B00004260C36149680164046230BD0000014055
:102B100010B5036A046A24F001040462846924F095
:102B2000F00444EA021423F00A020A4384610262B8
:102B300010BD10B5036A046A24F0100404628469AD
:102B400023F0A00324F4704444EA023243EA011162
:102B50008261016210BD000010B564214842FFF798
:102B6000BFFA104C01206070FDF7D0FB6FF0EF0250
:102B7000FDF734FCBDEEC00A10EE100A01B2FDF7FD
:102B800047FCBDEEC00A914210EE100A00B201DD12
:102B9000F028EDDB00210846FFF7A2FA0020607064
:102BA00010BD00001800002010B564214842FFF756
:102BB00097FA104C01206070FDF7A8FB6FF07702C8
:102BC000FDF70CFCBDEEC00A10EE100A01B2FDF7D5
:102BD0001FFCBDEEC00A914210EE100A00B201DDEA
:102BE0007828EDDB00210846FFF77AFA00206070B4
:102BF00010BD00001800002010B56FF063016420C4
:102C0000FFF76EFA104C01206070FDF77FFB6FF04C
:102C1000770200BFFDF7E2FBBDEEC00A10EE100A1E
:102C200001B2FDF7F5FBBDEEC00A782910EE100ADF
:102C300000B201DA9042EDDC00210846FFF750FABD
:102C40000020607010BD00001800002010B5806BDF
:102C50000021C185FEF7A2FE10BD01680C3151E8CC
:102C6000002F22F4907241E80023002BF5D1016877
:102C7000143151E8002F22F0010241E80023002B1B
:102C8000F5D1016B012909D101680C3151E8002F00
:102C900022F0100241E80023002BF5D1202180F81A
:102CA000421000210163704708B590F842102229B4
:102CB00001D0022008BD82684FF480539A4201D1AE
:102CC000016921B1816A9A421BD04AB10AE00268C7
:102CD000816A5268C2F308020A80816A891C08E08E
:102CE000026972B10268526802F07F020A70816A5A
:102CF000491C8162C18D491E0904090CC18503D09C
:102D00001BE002685268F1E70168CA6822F02002FD
:102D1000CA600168CA6822F48072CA6001684A69A0
:102D200022F001024A61202180F842100021416313
:102D3000026B012A03D0FEF7F1FF002008BD0163FA
:102D400001680C3151E8002F22F0100241E8002305
:102D5000002BF5D101680A68D20602D50A684968D5
:102D60000091818DFEF719FEE7E7000070B504467B
:102D700000680169E26821F4405111430161216951
:102D8000A068E26908436169114308432168CA6881
:102D900049F20C639A430243CA6020684169A26900
:102DA00021F440711143416131492068884202D0C9
:102DB0003049884202D1FDF7E3FF01E0FDF7D0FF83
:102DC000E2690023192164253226B2F5004F6268BA
:102DD00028D0A0FB0101930F9200FDF7F9F90146FD
:102DE000B0FBF5F06FF01802504301EB800006EBEA
:102DF0000010B0FBF5F000F0F002B1FBF5F002EBD3
:102E00000012B1FBF5F06FF01803584301EB80009E
:102E100006EB0010B0FBF5F000F00F002168104445
:102E2000886070BDA0FB010192185B41FDF7D0F9ED
:102E30000146B0FBF5F00201B1FBF5F06FF01803AD
:102E4000584301EB800006EBC000B0FBF5F000F04A
:102E5000F80002EB4002B1FBF5F0584301EB8000B3
:102E600006EBC000B0FBF5F000F00700D6E700006D
:102E7000001001400014014081628285C28500215A
:102E80004164222180F84210016921B10168CA68B9
:102E900042F48072CA6001684A6942F001024A61E4
:102EA0000068C16841F02001C16000207047000047
:102EB0000148FEF775BD0000E8010020FEE70000B4
:102EC0000FB4084B10B504A902AA039800F02CF81F
:102ED000044602A9002000F0D1F8204610BC5DF89D
:102EE00014FB00007D3000080907090E002804DBF0
:102EF00000F1E02080F80014704700F00F0000F1AE
:102F0000E02080F8141D704702E008C8121F08C1B5
:102F1000002AFAD170477047002001E001C1121F5A
:102F2000002AFBD1704700002DE9FF4F89B09B4676
:102F30000446002506E025280BD05A460B999047F9
:102F4000641C6D1C20780028F5D10DB02846BDE822
:102F5000F08F0027B8460122474900E0074314F8E4
:102F6000013F203B02FA03F00842F7D120782E28D7
:102F700019D114F8010F47F004072A280ED06FF07A
:102F80002F022078A0F1300109290CD808EB880124
:102F900002EB410100EB0108641CF2E70A98641C93
:102FA00050F8048B0A9020780028CED0642808D0EE
:102FB000692806D075281ED05A460B9990476D1C7B
:102FC00058E00A994FF00A0901C90A91002802DA6B
:102FD00040422D2102E0390504D52B218DF8201027
:102FE000012103E0F90704D02021F7E78A4608AE63
:102FF0000DE00021FAE70A994FF00A0901C90A9188
:10300000F7E74946FDF739F9303106F8011D002888
:10301000F7D1ADEB060000F12009780701D44FF09D
:103020000108C84502DDA8EB090000E00020804649
:10303000002706E008A85A46C05D0B9990476D1C12
:103040007F1C5745F6DB04E030205A460B99904729
:103050006D1CB8F10001A8F10108F5DC05E016F8D7
:10306000010B5A460B9990476D1CB9F10001A9F16B
:103070000109F4DC641C65E7092801000A68531C97
:103080000B6010707047000008B5FDF73DFDFFF7BD
:10309000D5FBFFF761F8FFF7BFF8FFF7DDF8FFF7A3
:1030A0001BF9FFF74FF9FFF7A9F9FFF781F9394845
:1030B000FEF7FEF8FFF7DBF9FFF7BEF9FEF7EEFFCC
:1030C000FDF75AF9022234493448FEF719FE324D11
:1030D000334EAD1E0024334FFFF724FA2A7832A175
:1030E0003348FFF7EDFE0021324B314A0846009489
:1030F000FFF731FA30A12E483268FFF7E1FE2D4B81
:103100002B4A112100200094FFF725FA2CA1284812
:103110007268FFF7D5FE274B254A11213C20009409
:10312000FFF719FA28A12248B268FFF7C9FE214B20
:103130001F4A222100200094FFF70DFA24A11C4809
:10314000F268FFF7BDFE1B4B194A22213C20009478
:10315000FFF701FAFFF7ECFAFEF782FF012805D02E
:103160002878012804D0022808D00CE0012028701B
:10317000FFF75AFBC820FFF73BFB03E0FFF7FEFA1F
:10318000FFF73EFB2C7038780128A5D100F024F819
:103190003C70A1E7A001002002000020E80100200F
:1031A000B4060020350000204D3A256400000000E0
:1031B000600000203437000854313A2564000000D4
:1031C00054323A256400000054333A25640000006C
:1031D00054343A256400000010B500210846FEF77B
:1031E0007FFFFFF7CBFAFFF70BFB2D4C6078012830
:1031F0000BD02078012101282A4AA0780BD0401E4C
:1032000010F0FF00A0702DD02DE0FFF7A5FC0020EE
:103210006070207010BD52F8202022B1012A09D020
:10322000022A03D112E06420FDF77CF8A078401C4C
:10323000A0702EE018B1012801D0032800D16170E0
:103240006420FDF76FF8FFF7AFFCECE718B1012839
:1032500001D0032800D161706420FDF763F8FFF707
:10326000CBFCE0E7617052F8200078B1012802D071
:1032700002280ED105E06420FDF754F8FFF7BCFCEE
:1032800004E06420FDF74EF8FFF78EFC6420FDF7A4
:1032900049F8FFF7C9FABDE81040C820FFF7A8BAFF
:1032A0005C000020B40600200000000000000000C8
:1032B00001020304060708090000000001020304DC
:1032C0000000000000000000000000000000FC0002
:1032D0000000000002000000000C020C02000000D0
:1032E0000000000090D0BCD0BC90000300030000A0
:1032F0001824FE448C000302070201001824D8B0F1
:103300004C80000300010201C038E438E0000102F3
:103310000201020208060000000000000000000098
:10332000000000F80402000000010204000204F89A
:1033300000000004020100009060F86090000000AE
:10334000010000002020FC202000000001000000FF
:1033500000000000000008060000000020202020DF
:10336000200000000000000000000000000000023B
:10337000000000000080601C020004030000000048
:10338000F8040404F8000102020201000008FC0035
:103390000000000203020000188444241800030205
:1033A0000202020008042424D800010202020100E3
:1033B00040B088FC80000000000302003C2424246C
:1033C000C400010202020100F824242CC000010202
:1033D000020201000C04E41C0400000003000000D1
:1033E000D8242424D80001020202010038444444B5
:1033F000F8000003020201000000100000000000BD
:103400000200000000002000000000000600000094
:10341000002050880402000000000102909090906B
:10342000900000000000000000020488502000020C
:10343000010000001804C42418000000020000006D
:10344000F804E494F80001020202020000E09CF09B
:10345000800002030000030204FC2424D8000203BD
:1034600002020100F80404040C000102020201003F
:1034700004FC0404F80002030202010004FC2474AA
:103480000C0002030202030004FC24740C0002037B
:1034900002000000F0080444CC40000102020100D8
:1034A00004FC2020FC040203000003020404FC04CA
:1034B0000400020203020200000404FC04040604E7
:1034C0000403000004FC24D00C04020302000302E5
:1034D00004FC04000000020302020203FC3CC03CA6
:1034E000FC0003000300030004FC30C4FC040203DE
:1034F00002000300F8040404F800010202020100C3
:1035000004FC24241800020302000000F884840450
:10351000F80001020207050004FC2464980002037D
:1035200002000302182424448C000302020201005A
:103530000C04FC040C0000020302000004FC000068
:10354000FC04000102020100047C80E01C04000075
:10355000030000001CE03CE01C000003000300002E
:10356000049C609C0400020300030200041CE01C95
:1035700004000002030200000C84641C0400020327
:10358000020203000000FE02020000000704040023
:10359000000E30C00000000000010200000202FE28
:1035A0000000000404070000000402040000000002
:1035B00000000000000000000000080808080808DB
:1035C0000000020000000000000000000040A0A079
:1035D000C00000010202030204FC2020C00000031E
:1035E0000202010000C0202060000001020202006F
:1035F00000C02024FC0000010202030200C0A0A0C1
:10360000C0000001020202000020F824240400028D
:10361000030202000040A0A0602000070A0A0A047A
:1036200004FC2020C0000203020003020020E4008A
:103630000000000203020000000020E4000008086F
:103640000807000004FC80E02020020302000302BF
:103650000404FC000000020203020200E020E0205B
:10366000C00003000300030020E02020C00002038C
:103670000200030200C02020C0000001020201007D
:1036800020E02020C000080F0A02010000C0202016
:10369000E0000001020A0F0820E0402020000203A1
:1036A000020000000060A0A020000002020203004F
:1036B0000020F820000000000102020020E00020AD
:1036C000E00000010202030220E0208060200000F0
:1036D000030100006080E080600000030003000040
:1036E00020608060200002030003020020E02080B0
:1036F00060200808070100000020A06020000002F0
:1037000003020200000020DE0200000000070400A7
:10371000000000FF00000000000F00000002DE209B
:10372000000000040700000002010204040200007F
:10373000000000000C060000C03200085C370008E2
:103740000000002060000000082F0008BC370008BF
:1037500060000020680A0000182F00080000000028
:103760000100000010000000000000000024F40030
:103770000000000000000000000000000000000049
:103780000000000000000000000000000000000039
:10379000000000000000000000000000F1F6FB0542
:1037A0000A0F000000000000000000000000000000
:0C37B0000000000000000000010000000C
:040000050800019559
:00000001FF
