:020000040800F2
:10000000900A0020AD010008F5240008311E000808
:10001000BD2400087D070008BB2B0008000000007D
:10002000000000000000000000000000CD260008D5
:100030007F0700080000000031260008CF260008D6
:10004000C7010008C7010008C7010008C701000870
:10005000C7010008C7010008C7010008C701000860
:10006000C7010008C7010008C7010008C701000850
:10007000C7010008C7010008C7010008C701000840
:10008000C7010008C7010008C70100080000000000
:10009000000000000000000000000000C701000890
:1000A00079270008C7010008C7010008C701000838
:1000B000C7010008C7010008C7010008C701000800
:1000C000C7010008C7010008C7010008C7010008F0
:1000D000C7010008C7010008C701000800000000B0
:1000E000C7010008C7010008C701000800000000A0
:1000F000000000000000000000000000C701000830
:1001000000000000C7010008C7010008C70100087F
:1001100000000000000000000000000000000000DF
:10012000C7010008C7010008C7010008C70100088F
:10013000C7010008000000000000000000000000EF
:10014000000000000000000000000000C7010008DF
:10015000C7010008C7010008C7010008C70100085F
:10016000C7010008C70100080000000000000000EF
:10017000000000000000000000000000000000007F
:1001800000000000C701000800000000000000009F
:10019000C7010008DFF810D000F0DEFA0048004781
:1001A000C1340008AFF30080900A00200648804761
:1001B00006480047FEE7FEE7FEE7FEE7FEE7FEE74C
:1001C000FEE7FEE7FEE7FEE7692700089501000865
:1001D0002DE9F05F0546002092469B46884606467C
:1001E000814640241BE0284641464746224600F00F
:1001F00095F953465A46C01A914110D311461846F4
:10020000224600F07CF92D1A67EB01084F46224682
:100210000120002100F073F917EB00094E41201E68
:10022000A4F10104DFDC484631462A464346BDE8D6
:10023000F09F40EA01039B0703D009E008C9121FA1
:1002400008C0042AFAD203E011F8013B00F8013B90
:10025000521EF9D27047D2B201E000F8012B491EBC
:10026000FBD270470022F6E710B513460A46044653
:100270001946FFF7F0FF204610BD2DE9FE4F8046DE
:1002800081EA0300C00F0C46009021F0004123F0EA
:100290000045B8EB0200A94105D2404621469046F0
:1002A0001C460B46024623F00040104347D0270D62
:1002B000C7F30A00C3F30A510290401A0190402884
:1002C0006BDAC3F3130040F4801B0098924620B110
:1002D0000023D2EB030A63EB0B0B01985946C0F1E4
:1002E0004002504600F00BF906460D46504659466E
:1002F000019A00F023F910EB08006141002487EA1D
:10030000115284EAE7731A4340D0009A62B3019A0B
:10031000012A4FEA075215DC001B61EB02014FF086
:10032000004202EA0752CDE90042001C41F580116B
:1003300032462B4600F023F903B0BDE8F08F40466B
:100340002146F9E7001B61EB0201001C41F5801317
:1003500000185B412018A2F5001747EB030140EAA3
:10036000D570B6196D4111E06D084FEA360645EAC1
:10037000C0754FEA0752001B61EB0201001C41F5FA
:10038000801149084FEA30000019514132462B468E
:1003900003B0BDE8F04F00F0E3B800980122400040
:1003A0000023D0EB020263EBE073009821464FEA92
:1003B000E074B8EB000061EB0401E9E783F000436F
:1003C0005BE781F0004158E72DE9FE4F81EA030425
:1003D00004F0004421F0004100944FF0000B23F0A2
:1003E000004350EA01045ED052EA03045BD0C3F339
:1003F0000A54C1F30A552C44A4F2F3340194A0FB2F
:100400000254C1F3130141F48011C3F3130343F405
:10041000801301FB024400FB034E840A970A44EA5E
:10042000815447EA8357A4FB076802958D0A05FBB0
:1004300007854FEA932C04FB0C542705029D4FEAD5
:10044000065847EA1637B5EB08056EEB070C870E22
:10045000920E47EA811742EA8312A7FB0201B6EB2C
:100460000B0164EB00042B0D43EA0C335E1844EBE4
:100470001C50DA465146E7FB0201C5F313044FEA6C
:100480000B3343EA14534FEA0432019C43EA060358
:10049000A4F10C040294009CCDE900B400F06FF8C4
:1004A00003B0BDE8F08F00200146F9E700F00042FC
:1004B00030F000400AD0C10D01F56071C0F31600A4
:1004C00042EA0151C208400711437047002001462B
:1004D000704730B50B46014600202022012409E078
:1004E00021FA02F59D4205D303FA02F5491B04FAED
:1004F00002F52844151EA2F10102F1DC30BD202ACC
:1005000004DB203A00FA02F1002070479140C2F16A
:10051000200320FA03F3194390407047202A04DB9C
:10052000203A21FA02F00021704721FA02F3D0406C
:10053000C2F120029140084319467047202A06DB89
:10054000CB17203A41FA02F043EAE07306E041FAA1
:1005500002F3D040C2F1200291400843194670478F
:1005600010B5141E73F1000408DA401C41F10001BB
:1005700092185B411A4301D120F0010010BD2DE912
:10058000F04D92469B4611B1B1FA81F202E0B0FA09
:1005900080F220329046FFF7B2FF04460F4640EA51
:1005A0000A0041EA0B0153465A46084313D011464C
:1005B00053EA010019D0C8F140025046FFF7AEFFE0
:1005C00005460E46504659464246FFF798FF0843F7
:1005D00005D0012004E020463946BDE8F08D00201A
:1005E000054346EAE0762C4337430A986305E40A5C
:1005F000A0EB08000022FD0A44EA47540A3002D565
:1006000000200146E9E7010510196941DDE90845C7
:1006100000196941BDE8F04DA2E72DE9F04D81EAEE
:10062000030404F0004B21F0004514464FF0000A8B
:1006300023F0004150EA050220D054EA01021DD007
:10064000C5F30A570246C5F31303C1F31300C1F300
:100650000A5640F4801543F48013A7EB0608101BDC
:10066000D64608F2FD3873EB050002D308F1010805
:1006700001E092185B41B8F1000F03DA0020014657
:10068000BDE8F08D00204FF48011064684460EE050
:10069000171B73EB050705D3121B63EB050306431A
:1006A0004CEA010C49084FEA300092185B4150EACD
:1006B0000107EDD152EA030012D082EA040083EA76
:1006C0000501084305D0101BAB4106D201220023CF
:1006D00006E000224FF0004302E06FF001025310E9
:1006E0001AEB06004CEB085110EB0A0041EB0B0132
:1006F000BDE8F04DFFF734BFC1F30A52C1F3130157
:1007000040F2FF3341F480119A4202DA00200146A0
:10071000704740F233439A42A2F2334202DC524223
:10072000FFF7FCBEFFF7EBBE30B5041E71F100040D
:1007300004DB4FF00044404264EB0101141E73F1EE
:10074000000405DB1C464FF00043524263EB0403F8
:10075000994208BF904230BD064C074D06E0E06864
:1007600040F0010394E8070098471034AC42F6D3F8
:10077000FFF714FD7835000898350008FEE770474C
:1007800072B6FEE70A48DFED0B0A90ED010AB8EEFB
:10079000C00A20EE200AF2EE0A0A80EE201AB5EE18
:1007A000000A61EE000AB3EE0E1A80EE810A70476D
:1007B000140000200000C8420A48DFED0B0A90ED4B
:1007C000020AB8EEC00A20EE200AF2EE0A0A80EE13
:1007D000201AB5EE000A61EE000AB3EE0E1A80EEA2
:1007E000810A7047140000200000C8420148406898
:1007F000704700002800002070B52A4CA06801282E
:100800002ED1E068401CE0600A2829DB264E002536
:100810004FF480513046E56000F060F920704FF4ED
:100820000051304600F05AF960704FF48041304674
:1008300000F054F9A0704FF40041304600F04EF93A
:10084000E070217801290CD0002909D161780129B3
:1008500006D1A178012903D1012801D102206060CD
:1008600070BD617851B1012914D049B1F8D1A17896
:100870000129F5D10028F3D1801EF0E7A17829B134
:10088000A1780129ECD10128E9D070BD0128FCD163
:10089000656070BDA1780029E9D10128F9D1801ED9
:1008A000DDE700002800002000040240014901208B
:1008B00008707047140000200D4810B50178012918
:1008C00015D14178491CC9B241700A290FD3094A90
:1008D000002141701268536A1BB25B424360064BB1
:1008E0001C68646A24B2846051621868416210BD59
:1008F00014000020E8000020300100202DE9F84F0E
:10090000DFF8B8A10022012403254FF00F090AF1F6
:10091000040BAAF1040E00BF0B6804FA02F6334080
:10092000B34273D10F7907F00307012F01D0022FD3
:1009300016D187684FEA420805FA08FC27EA0C0737
:10094000D1F80CC00CFA08FC4CEA070CC0F808C03F
:100950004768B7430E79C6F3001696403E4346609B
:100960000E79F643B6070DD0C768560005FA06FCA7
:1009700027EA0C07D1F808C00CFA06FC4CEA070C71
:10098000C0F80CC00E7906F00306022E10D1D6086E
:1009900000EB8608D8F8206057074FEAD76C09FAB1
:1009A0000CF7BE430F6907FA0CF73743C8F82070FD
:1009B00006684FEA420C05FA0CF7BE430F7907F0C0
:1009C000030707FA0CF7374307604E6816F4403FF9
:1009D0006DD03B4E376847F480473760366822F069
:1009E000030706F480460096364E07EB060CDCF84B
:1009F000086897073F0F09FA07F826EA0806DFF8A4
:100A0000C880404503D14FF000081EE04FE0DFF8FA
:100A1000BC80404502D14FF0010816E0DFF8B080FD
:100A2000404502D14FF002080FE0DFF8A8804045B2
:100A300002D14FF0030808E0DFF89C80404502D166
:100A40004FF0040801E04FF0070808FA07F848EAF9
:100A50000608CCF80888DAF800605746D1F804C0D8
:100A60009E435FEACC2C00D51E433E60DBF800605D
:100A70005F46D1F804C09E435FEA8C2C00D51E432C
:100A80003E60DEF800607746D1F804C09E435FEA1E
:100A90008C3C00D51E433E60084F083F3E68D1F8AD
:100AA00004C09E435FEACC3C00D51E433E60521C0E
:100AB000102AFFF431AFBDE8F88F0000083C014078
:100AC000443802400030014000000240000402406F
:100AD00000080240000C024000100240006908407B
:100AE00000D0012070470AB1816170470904FBE71B
:100AF00001488068704700000000002070B50400C5
:100B000025D094F83D00002520B984F83C502046BB
:100B100000F04EF9242084F83D002068016821F09F
:100B2000010101602068016841F400410160206812
:100B3000016821F40041016000F0A4FA4D4A6168A7
:100B4000914201D84C4900E04C49884201D2012031
:100B500070BD4B492368B0FBF1F15E6826F03F069B
:100B60000E435E606368934206D94FF4967359430F
:100B70004FF47A73B1FBF3F12368491C1E6A26F027
:100B80003F06314319626168914210D84900401E06
:100B9000B0FBF1F2521CC2F30B02042A01D2042072
:100BA00022E0B0FBF1F0401CC0F30B001CE0A26897
:100BB000F2B301EBC10303EB0116431EB3FBF6F3E3
:100BC0005B1C43F480431B0549D092B301EBC10287
:100BD00002EB0111401EB0FBF1F0401CC0F30B0012
:100BE00040F4804040F400402168CA694CF6FF732D
:100BF0009A431043C861D4E9071001432068026892
:100C000022F0C00211430160D4E9030101432068CE
:100C1000826848F2FF339A4311438160D4E90501A9
:100C200008432168CA6822F0FF021043C86001E04F
:100C30000EE016E02068016841F0010101602564C2
:100C4000202084F83D00256384F83E50002070BDCC
:100C500001EB4106431EB3FBF6F35B1CB3E7012037
:100C6000C2E701EB4101401EB0FBF1F0401CC0F3B4
:100C70000B00B7E7A086010080841E0000093D003C
:100C800040420F002DE9F84F1F4690468A46044621
:100C9000DDF82890FFF72CFF054694F83D0020284A
:100CA0007FD11923012240492046009501F052F9D5
:100CB000002876D194F83C00012872D0012084F8F5
:100CC0003C0020680168C90703D1016841F00101B7
:100CD00001602068016821F400610160212084F82E
:100CE0003D00102084F83E0000262664C4F82480CD
:100CF0006785608D20852D48E0622B464A46514627
:100D0000204601F0ADF890B92068416980690090F3
:100D100036E02A464946204601F0C2F950B1206C1F
:100D2000042804D12068016841F4007101600120A9
:100D3000BDE8F88F606A216800780861606A401C2D
:100D40006062618D491E6185218D491E89B22185B0
:100D500022685369DB435B070BD451B10078106103
:100D6000606A401C6062608D401E6085208D401E60
:100D700020852A464946204601F0C0F80028CED1F9
:100D8000208D0028C5D154F83D0B016841F4007155
:100D90000160202004F81E09E67766770020C7E787
:100DA000FFE70220C4E70000020010000000FFFF80
:100DB00010B586B0044614216846FFF753FA14496B
:100DC0002068884221D113480021026842F00202C3
:100DD0000260006800F0020005904FF4407000903F
:100DE0001220CDE9010103200390042004906946FC
:100DF0000948FFF783FD07481030016841F40011EE
:100E00000160006800F40010059006B010BD0000FD
:100E1000005400403038024000040240024881681B
:100E20000278114481607047000000200B4810B523
:100E3000016841F400710160016841F48061016062
:100E4000016841F480710160032000F06FF80F2009
:100E500000F006F800F024F8002010BD003C02402D
:100E600070B50D4D04464FF47A712878B1FBF0F05F
:100E70000A490968B1FBF0F000F00CFB48B9102CEE
:100E800007D200222146501E00F030F800206C608E
:100E900070BD012070BD0000000000200C0000208B
:100EA0000A4808B5016841F480410160006800F417
:100EB000804000900548001F016841F080510160AA
:100EC000006800F08050009008BD000044380240E7
:100ED000002809DB00F01F02012191404009800039
:100EE00000F1E020C0F8001170470000F0B40E4B94
:100EF0001B680C46C3F30223C3F10705042D00D978
:100F00000425191D072901D2002300E0DB1E01265C
:100F100006FA05F1491E214099409E40761E164072
:100F20003143F0BC01F05ABE0CED00E0064900F080
:100F3000070208684FF6FF03184040EA0220034A00
:100F400010430860704700000CED00E00000FA0557
:100F50002DE9F0470E46050065D0DFF81481D8F87A
:100F60000000F7B200F00700B04207D288F8007026
:100F7000D8F8000000F00700B04254D128683D4C7A
:100F8000810712D5400703D5206840F4E050206067
:100F90002878000703D5206840F46040206020686E
:100FA000A96820F0F000084320602878C0072DD001
:100FB000304968680839012812D0022813D0032864
:100FC00011D00968890700292DDA216821F0030171
:100FD00001432160FFF78CFD814641F2883A0EE023
:100FE00009688903EFE709688901ECE7FFF780FDED
:100FF000A0EB0901514502D90320BDE8F087206824
:10100000696800F00C00B0EB810FEFD1D8F8001048
:10101000404601F00701B14207D90770006800F0AF
:101020000700B04201D00120E7E72878400705D546
:101030002068E96820F4E050084320602878000721
:1010400006D52068296920F4604040EAC10020608C
:1010500000F038F82168084AC1F30311515CC84018
:101060000649086006480068FFF7FAFE0020C4E75A
:10107000003C024008380240603500080C000020A7
:10108000040000200448054900680968044AC1F3C7
:101090008221515CC84070470C0000200838024093
:1010A000703500080448054900680968044AC1F31E
:1010B0004231515CC84070470C00002008380240A3
:1010C00070350008154810B5006810F00C0214487F
:1010D00013D01449042A0FD0082A0ED10F4C241F14
:1010E0002268236802F03F025B0207D52068C0F344
:1010F0008810A0FB010106E0084610BD2168C1F37D
:101100008811A1FB00010023FFF762F82168C1F3F9
:101110000141491C4900B0FBF1F010BD0838024004
:101120000024F40040787D012DE9F84F04006ED0D2
:101130002078DFF84C93C007A9F104054AD009F1E3
:1011400004000168C1F38101012908D00068C0F3DF
:10115000810002280AD1D9F80000400206D528688B
:10116000800337D560680028E1D033E06068B0F5CF
:10117000803F10D0B0F5A02F286810D020F4803028
:101180002860286820F4802028606068A8B1FFF7F4
:10119000AFFC06460DE0286840F48030F4E740F4E8
:1011A00080202860F7E700BFFFF7A2FC801B6428BF
:1011B00073D828688003F7D50CE0FFF799FC064642
:1011C00005E000BFFFF794FC801B6428F0D8286876
:1011D0008003F7D42078DFF8AC8280074FF0000A54
:1011E0003ED5A748001D016811F00C0F08D000681B
:1011F000C0F3810002280BD1D9F80000400207D4C7
:101200002868800716D5E068012800D112E033E194
:10121000E068B8B10120C8F80000FFF769FC064695
:1012200005E000BFFFF764FC801B0228C0D82868D7
:101230008007F7D52868216920F0F80040EAC1004E
:1012400028600DE0C8F800A0FFF752FC064604E055
:10125000FFF74EFC801B02281FD828688007F7D4B0
:101260002078000722D5864F87486169703771B1B1
:1012700001210160FFF73CFC064604E0FFF738FC63
:10128000801B022809D838688007F7D50EE0C0F81F
:1012900000A0FFF72DFC064605E082E0FFF728FCE2
:1012A000801B02287DD838688007F7D42078400753
:1012B00068D5DFF8CCB100270BF13C0BDBF8000060
:1012C000C0000BD4DBF8001041F08051CBF80010C7
:1012D000DBF80000012700F0805000906B4E306872
:1012E000C00510D4306840F480703060FFF700FC17
:1012F000009005E0FFF7FCFB0099401A022850D847
:101300003068C005F6D55E4EA0686C3601280FD057
:101310000528306810D020F001003060306820F0DF
:1013200004003060A068B8B1FFF7E2FB00900FE066
:10133000306840F00100F4E740F004003060F7E767
:10134000FFF7D6FB0099411A41F28830814266D8F6
:1013500030688007F4D50EE0FFF7CAFB009007E085
:10136000FFF7C6FB0099411A41F28830814256D8F6
:1013700030688007F4D42FB1DBF8001021F08051E1
:10138000CBF80010A069C8B33D49091D0968C1F335
:10139000810102294AD00228504607D0C8F86000CF
:1013A00000E03CE0FFF7A4FB04463BE04746C8F8FA
:1013B0006000FFF79DFB064605E000BFFFF798FBC6
:1013C000801B02282BD828688001F7D4D4E90701B4
:1013D0000843A16A2E4A490802EB0141626A41EAC8
:1013E0008211084394F82C1040EA0161C9F80010FA
:1013F00001203866FFF77CFB044606E03EE000BFB4
:10140000FFF776FB001B022809D828688001F7D572
:1014100034E000BFFFF76CFB001B022802D9032059
:10142000BDE8F88F28688001F4D427E00128F7D0C0
:10143000D9F80000E26900F4800191421CD1226ACF
:1014400000F03F01914217D147F6C071626A014036
:10145000B1EB821F10D1A26A4FF0FF3300F440318C
:1014600003EB5202B1EB024F06D194F82C1000F0BE
:101470007060B0EB016F01D00120D1E70020CFE711
:101480000438024000004742800E4742007000408E
:101490000000FFFF10B5401EB0F1807F01D3012096
:1014A00010BD4FF0E02460610F21601701F096FB42
:1014B0000020A06107202061002010BD7047704708
:1014C00070B590F83C20012A2CD0012480F83C40D3
:1014D000022280F83D2003685A689D6822F0700659
:1014E0000A6832435A60104B02689A420ED0B2F139
:1014F000804F0BD00D4B9A4208D00D4B9A4205D02D
:101500000C4B9A4202D00C4B9A4204D1496825F008
:1015100080031943916080F83D40002180F83C1021
:10152000084670BD022070BD00000140000400406C
:1015300000080040000C00400040014010B50400CD
:1015400003D094F83D0010B107E0012010BD002049
:1015500084F83C00204600F01FF8022084F83D008B
:10156000211D206801F00EF9012084F8460084F85E
:101570003E0084F83F0084F8400084F8410084F87D
:10158000420084F8430084F8440084F8450084F85D
:101590003D00002010BD000008B500680B498842DE
:1015A00012D10B48016841F48031016000680022CB
:1015B00000F48030009011461820FFF797FCBDE83A
:1015C00008401820FFF784BC08BD0000004001401F
:1015D0004438024090F83D10012901D001207047A5
:1015E000022180F83D100168CA6842F00102CA6019
:1015F00000680E4988420ED0B0F1804F0BD00C49E4
:10160000884208D00B49884205D00B49884202D055
:101610000A49884204D1816801F00701062903D0F4
:10162000016841F0010101600020704700000140A5
:101630000004004000080040000C00400040014051
:1016400070B5044690F83C000025012817D001260B
:1016500084F83C60022084F83D002068826822F013
:10166000770222F47F4282600868502838D00DDC6F
:1016700020284FD005DC90B3102811D14AE0022079
:1016800070BD302846D040280AD13BE060282FD0DA
:1016900070280DD0B0F5805F03D0B0F5005F12D098
:1016A000012584F83D60002084F83C00284670BD88
:1016B000CB68D1E90121206801F0C1F82068816878
:1016C00041F0770109E0CB68D1E90121206801F000
:1016D000B6F82068816841F480418160E1E719E053
:1016E000CA684968206801F05FF95021206806E067
:1016F000CA684968206801F068F96021206801F033
:10170000A8F8CEE7CA684968206801F04DF9402181
:101710002068F4E7226801461046F0E72DE9F04121
:101720000D46040003D094F83D0018B108E00120F4
:10173000BDE8F081002084F83C00204600F040F82D
:10174000022084F83D002068816844F2070291433A
:101750008160211D206801F015F822689068916968
:10176000166A2B68AF69034340F20330814341EAB4
:101770000721A868EF6908434FF6FC418843E968F0
:1017800040EA0720014328692F6A000140EA073038
:10179000084369686D6926F0AA0646EA05152943DB
:1017A00093602268906154F8460B0162012004F8AE
:1017B0001F09E0752076E0762077A0750020B7E756
:1017C00030B587B0044614216846FEF74BFD20482B
:1017D00024681E4D00221E4910380223AC4216D147
:1017E0000C6844F004040C60096801F004010591E0
:1017F000016841F0020101600068694600F00200E2
:101800000590C0200090CDE90132124818E0124D39
:10181000AC4219D10C6844F008040C60096801F06E
:1018200008010591016841F0010101600068694605
:1018300000F00100059003200090CDE90132074837
:10184000CDE90323FFF75AF807B030BD0008004088
:101850004038024000040240000C004000000240FA
:1018600070B590F83E60044690F83F5090F84230D2
:1018700090F84320022021B104290ED0012E1BD163
:1018800014E0012E18D1012B16D184F83E0084F803
:10189000420001220021206820E0012D0CD1012A04
:1018A0000AD184F83F0084F8430014E0012D03D1ED
:1018B000012B01D1012A01D0012070BD84F83E0026
:1018C00084F83F0084F8420084F84300012200219C
:1018D000206800F0A7FF01220421206800F0A2FF89
:1018E0002068016841F001010160002070BD70476F
:1018F0002DE9F04104460068C66805694FF000070D
:10190000A90713D5B10711D5F91E01610120207770
:10191000206880698007204602D0FFF7E8FF04E0D6
:1019200000F0BAF8204600F05DF92777680716D571
:10193000700714D521686FF0040008610220207739
:101940002068806910F4407F204602D0FFF7CFFF67
:1019500004E000F0A1F8204600F044F927772807BA
:1019600015D5300713D521686FF0080008610420F1
:1019700020772068C0698007204602D0FFF7B7FFB4
:1019800004E000F089F8204600F02CF92777E806FB
:1019900016D5F00614D521686FF0100008610820F4
:1019A00020772068C06910F4407F204602D0FFF7FE
:1019B0009EFF04E000F070F8204600F013F927774E
:1019C000E80708D0F00706D021686FF00100086131
:1019D000204600F061F9280608D5300606D52168B2
:1019E0006FF0800008612046FFF768FD680608D5A3
:1019F000700606D521686FF040000861204600F0AF
:101A00005DF9A8060AD5B00608D521686FF0200058
:101A100008612046BDE8F041FFF751BDBDE8F08107
:101A200070B586B0044614216846FEF71BFC20689A
:101A3000B0F1804F27D115480024016841F0010121
:101A40000160016801F001010591016841F00201A6
:101A500001600068022500F002000590202000903F
:101A6000CDE901540126CDE9034669460848FEF751
:101A700045FF08200090CDE90154CDE903466946B1
:101A80000448FEF73BFF06B070BD0000303802404E
:101A90000000024000040240704770B5044690F810
:101AA0003C0000260D4601280FD0012084F83C00A0
:101AB0006AB1042A1DD0082A2FD00C2A3FD0012653
:101AC000002084F83C00304670BD022070BD2068C4
:101AD00000F0C8FE2068816941F00801816120683A
:101AE000816921F004018161206881692A691143BB
:101AF00011E0206800F0DEFE2068816941F4006199
:101B000081612068816921F4806181612068816937
:101B10002A6941EA02218161D2E7206800F0F6FEDD
:101B20002068C16941F00801C1612068C16921F0E4
:101B30000401C1612068C1692A69114311E020686C
:101B400000F010FF2068C16941F40061C1612068A4
:101B5000C16921F48061C1612068C1692A6941EAD3
:101B60000221C161ACE710B5040003D094F83D0038
:101B700010B107E0012010BD002084F83C00204691
:101B800000F01EF8022084F83D00211D206800F0BE
:101B9000F9FD012084F8460084F83E0084F83F00F7
:101BA00084F8400084F8410084F8420084F843003F
:101BB00084F8440084F8450084F83D00002010BDFE
:101BC00008B50068B0F1804F08D10548016841F0C0
:101BD00001010160006800F00100009008BD0000F4
:101BE000403802407047000010B50446022249B157
:101BF00004290ED0082913D094F84100012816D0EA
:101C0000012010BD94F83E000128F9D184F83E204F
:101C10000FE094F83F000128F2D184F83F2008E05B
:101C200094F840000128EBD184F8402001E084F8CA
:101C300041200122206800F0F5FD12492068884209
:101C400003D1426C42F400424264206888420ED0C4
:101C5000B0F1804F0BD00C49884208D00B49884224
:101C600005D00B49884202D00A49884204D18168D4
:101C700001F00701062903D0016841F0010101606C
:101C8000002010BD0000014000040040000800409A
:101C9000000C00400040014010B500680649884231
:101CA00009D100F04DFAFEF7A7FDFEF705FEBDE8ED
:101CB000104000F0C7BC10BD00400140704770B537
:101CC000040004D094F84100002510B106E0012082
:101CD00070BD84F84050204600F024F8242084F899
:101CE00041002068C16821F40051C160204600F025
:101CF000A5FE2068016921F49041016120684169D5
:101D000021F02A0141612068C16841F40051C1609D
:101D10006564202084F8410084F842006563002057
:101D200070BD000010B586B0044614216846FEF769
:101D300099FA14492068884221D113480021026889
:101D400042F010020260006800F0100005900E489A
:101D50001438026842F001020260006800F00100DD
:101D600005904FF4C06000900220CDE901010320EE
:101D700003900720049069460448FEF7BFFD06B0B3
:101D800010BD000000100140443802400000024035
:101D90002DE9F843044690F84100984616460D4652
:101DA000202802D00220BDE8F88385B17EB1002052
:101DB0006064212084F84100FEF79AFEA6848146E3
:101DC000E684A0682027B0F5805F02D003E0012000
:101DD000E9E7206910B12E4600250EE000260CE050
:101DE0008021204600F0B0FEA8B9C6B116F8010B5C
:101DF00021684860E08C401EE084E08C4B464FF048
:101E00000002CDF800800028EAD14FF040012046C2
:101E100000F09AFE40B184F841700320C3E735F822
:101E2000020BC0F30800E3E784F841700020BAE732
:101E3000FEE701684A69D24352050FD46FF480620D
:101E40004A61002140F8301F2022427381730269E9
:101E500042F00402026101730120704700207047C4
:101E6000F8B50446C06A1E460D461746082807D036
:101E7000012805D010F5803F02D0206B122804D134
:101E80002068016841F480710160134600224FF020
:101E900001112046009600F05DF840B1206800680E
:101EA000C00502D54FF4007020640320F8BD2069FE
:101EB000B0F5804F0ED00620216800EAD51040F022
:101EC000F000086133463A460B49204600F08AF894
:101ED00078B902E005F0FE0000E0E8B22168086190
:101EE000054933463A46891F204600F07BF8002812
:101EF000DCD00120F8BD00000800010070B51646D6
:101F00000D4604461EE02046FFF793FF08B101206E
:101F100070BD681C16D0FEF7EBFD801BA84200D8F0
:101F200085B920684069C04340070BD5002044F8BC
:101F3000300F20216173A073216941F020012161DC
:101F40002073E4E720684069C0434007DBD40020E9
:101F500070BD00002DE9F047984617460D4604462F
:101F6000C1F30746DDF820902AE000BFB8F1FF3F3B
:101F700026D0FEF7BDFDA0EB0901414502D8B8F11E
:101F8000000F1DD12068012E16D0806925EA0000BF
:101F90000004000C12D00020B84211D1002044F8F7
:101FA000300F20216173A073216941F0200121616C
:101FB00020730120BDE8F0874069E7E70120EBE7E7
:101FC0002068012E0AD0806925EA00000004000C78
:101FD00006D00020B842C9D00020EBE74069F3E703
:101FE0000120F7E72DE9F047984616460D460446CE
:101FF0004FF000094FF0200AC1F3074723E02068A3
:102000004069C043400515D42068016841F400715F
:10201000016021686FF480604861C4F8309084F8F2
:102020003DA084F83E90216C41F00401216484F8C5
:102030003C9021E0701C06D0FEF75AFDA0EB080092
:10204000B04203D816B1012F1FD021E02068012F24
:1020500015D0806925EA00000004000C18D000BFEC
:1020600044F8309F84F80DA084F80E90216941F067
:102070002001216184F80C900120BDE8F0874069BF
:1020800025EA00000004000CEAD12068406901E064
:102090002068806925EA00000004000CAFD1ECE75D
:1020A00070B516460D4604461EE02046FFF7C1FEF9
:1020B00008B1012070BD681C16D0FEF719FD801B09
:1020C000A84200D885B920684069C04300060BD5F6
:1020D000002044F8300F20216173A073216941F082
:1020E000200121612073E4E720684069C0430006B5
:1020F000DBD4002070BD00000249002208790A717B
:10210000704700002000002010B5094C4FF480718A
:102110002046FEF7E3FC30B180212046FEF7DEFCCE
:1021200018B1002010BD012010BD022010BD00001C
:102130000000024001490120087070472000002083
:1021400010B50C4C2078012812D16078401CC0B228
:10215000607014280CD300206070A078E070FFF746
:10216000D3FFA070002803D1E078002800D02071B0
:1021700010BD00002000002070B51A4E0D4604006E
:1021800006D5012202213046FEF7ADFC002205E013
:10219000002202213046FEF7A6FC01220121304632
:1021A000FEF7A1FC002C00DA64420F4E3068846315
:1021B0000E4C002D06DA012210212046FEF793FC7A
:1021C000002205E0002210212046FEF78CFC0122AF
:1021D00008212046FEF787FC002D00DA6D423068AA
:1021E000456370BD00040240A000002000000240D2
:1021F000F0B587B014216846FEF734F8254800246E
:10220000016841F004010160016801F004010591D9
:10221000016841F080010160016801F080010591D1
:10222000016841F001010160016801F001010591BF
:10223000016841F0020101600068174E00F00200E1
:102240000590002218213046FEF74DFC134F002266
:1022500003213846FEF747FC182000900125CDE900
:102260000154694630460394FEF748FB4FF4C070B2
:102270008DE8310069463046FEF740FB03200090B0
:10228000CDE90154694638460394FEF737FB07B0A1
:10229000F0BD00003038024000000240000402405F
:1022A0000D4810B50B4901600C49416000214FF405
:1022B00080428160C0E9031241618161C1610162B4
:1022C000FEF71CFC002803D0BDE81040FEF758BA0A
:1022D00010BD0000005400404C000020A08601000A
:1022E00010B58AB0002407941C2168460894FDF7B5
:1022F000B9FF1A484FF0804101605321C0E9011431
:1023000040F2E731C0E903148461FFF72CFC08B107
:10231000FEF736FA079407A910480894FFF7D0F89B
:1023200008B1FEF72DFA6020CDE9000402940022E6
:1023300069460A480494FFF7B0FB08B1FEF720FA9B
:10234000042269460548FFF7A8FB08B1FEF718FA12
:102350000248FFF765FB0AB010BD0000A000002096
:1023600010B58CB024216846FDF77CFF0024164888
:10237000099414490A94C0E900144FF6FF71C0E9AA
:102380000241046184610320CDE900040120CDE90C
:1023900002040F210491CDE90540CDE907416946CA
:1023A0000948FFF7BBF908B1FEF7EAF9099409A952
:1023B00005480A94FFF784F8002801D0FEF7E0F9F9
:1023C0000CB010BD00080040E800002010B58CB033
:1023D00024216846FDF746FF002416480994144955
:1023E0000A94C0E90014611EC0E9024104618461DD
:1023F0000320CDE900040120CDE902040F2104915E
:10240000CDE90540CDE9074169460A48FFF786F95D
:1024100008B1FEF7B5F9099409A906480A94FFF72F
:102420004FF8002801D0FEF7ABF90CB010BD00004A
:10243000000C0040300100201FB500211048009121
:10244000019102910D4A039102605322C0E90121DA
:1024500040F2E732C0E903218161FFF76FF808B16C
:10246000FEF78EF94FF48050009069460448FFF75C
:10247000E7F8002801D0FEF783F91FBD00400140B6
:10248000780100200C4810B50A4901604FF4E13191
:102490004160002181600C22C160C0E904128161A9
:1024A000C161FFF70CFC002803D0BDE81040FEF727
:1024B00067B910BD00100140C0010020FEE7000018
:1024C00010B500210848FFF78FFB04210648FFF7ED
:1024D0008BFB3C210548FFF7C3F9BDE810403C21C8
:1024E0000348FFF7BDB90000A0000020E80000206D
:1024F00030010020FEE710B5AE2000F06DF820207E
:1025000000F06AF8102000F067F8B02000F064F8DE
:10251000C82000F061F8002000F05EF8102000F004
:102520005BF8402000F058F8812000F055F8DF20DB
:1025300000F052F8A12000F04FF8A62000F04CF86F
:10254000A82000F049F83F2000F046F8A42000F051
:1025500043F8D32000F040F8002000F03DF8D520EB
:1025600000F03AF8F02000F037F8D92000F034F805
:10257000222000F031F8DA2000F02EF8122000F0CE
:102580002BF8DB2000F028F8202000F025F88D2023
:1025900000F022F8142000F01FF800F007F800F017
:1025A00023F8BDE81040AF2000F016B84FF480616A
:1025B0000148FDF757BE00008902002008B54FF022
:1025C000FF3200920B46024678210248FEF75AFB82
:1025D00008BD00004C00002002494870022101485B
:1025E000FFF7ECBF1200002070B5104D4020002412
:1025F000287005F1810600BF04F1B000C0B2FFF7FA
:10260000EBFF0020FFF7E8FF1020FFF7E5FF06EBE8
:10261000C4118022681CFDF70CFE81210348FFF7DE
:10262000CDFF641CE4B2082CE6D370BD0802002084
:10263000704700000249002008700146FFF79CBD6A
:102640003800002010B5184C207801282BD1607874
:10265000401CC0B26070142825D300206070FEF7C3
:10266000C5F800EE100AD4ED020A9FED101AB8EE7C
:10267000C00A70EE800AC4ED020AD4ED010ABDE87A
:102680001040F8EEE01AF8EEE00A40EE011A40EED3
:10269000410AFDEEE11ABDEEE00A11EE901A10EECD
:1026A000100AFFF769BD10BD380000200000C842C5
:1026B000024901220A70486070470000380000207B
:1026C0000149012088607047280000207047FEF70C
:1026D000A5BB000030B593B030216846FDF7C2FDC0
:1026E00014210CA8FDF7BEFD1D480025016841F02E
:1026F00080510160006800F0805011901948016815
:1027000021F4404141F4004101600068022400F4DA
:102710004040119001200090000401908001CDE91B
:10272000064019200890A820CDE9090404200B9048
:102730006846FEF7F9FC08B172B6FEE70CA90F2057
:1027400081E831004FF48050CDE90F0502210CA83B
:10275000FEF7FEFB002801D072B6FEE713B030BDD5
:1027600040380240007000400248016841F47001A6
:102770000160704788ED00E00148FFF7B9B800003C
:1027800078010020F0B502681F4B204C204D214EEF
:102790004FF0804C984207D0604505D0A04203D04E
:1027A000A84201D0B04203D122F070074A683A43F0
:1027B000984210D060450ED0A0420CD0A8420AD05A
:1027C000B04208D0144CA04205D0144CA04202D014
:1027D000134CA04203D122F44074CA6822434C69CE
:1027E00022F0800222438C68C4620C6884629842A2
:1027F00001D109690163016841F00401016001210F
:1028000041610260F0BD0000000001400004004092
:1028100000080040000C004000400140004401401E
:102820000048014010B501F01F030121046A9940DE
:102830008C430462016A9A401143016210BD10B5D5
:10284000846842EA032224F47F440A4322438260DC
:1028500010BD826822F070020A4342F007018160D5
:102860007047000030B5036A026A22F0010202627A
:102870004268846924F073050C682C4323F0020538
:102880008B682B430A4DA8420BD123F00805CB6877
:1028900022F440722B434D6923F0040315438A69E7
:1028A0002A434260846149684163036230BD00008D
:1028B0000000014030B5026A036A23F0100303628E
:1028C000436884690D6824F4E64444EA05248D686D
:1028D00022F0200242EA05120B4DA8420ED1CD682B
:1028E00022F0800242EA05124D6923F4406343EA74
:1028F00085038D6922F0400243EA850343608461C9
:1029000049688163026230BD0000014030B5036A4E
:10291000026A22F4807202624268C46923F400737E
:1029200024F073050C682C438D6843EA05230C4D95
:10293000A8420ED1CD6823F4006343EA05234D6914
:1029400022F4405242EA05128D6923F4806342EA80
:1029500005124260C4614968C163036230BD000072
:102960000000014030B5046A026A22F4805202621B
:102970004268C3690D6823F4E64343EA05238D6882
:1029800024F4005444EA0534064DA84204D14D69AC
:1029900022F4804242EA85124260C36149680164C0
:1029A000046230BD0000014010B5036A046A24F0DF
:1029B00001040462846924F0F00444EA021423F060
:1029C0000A020A438461026210BD10B5036A046AF8
:1029D00024F010040462846923F0A00324F47044FA
:1029E00044EA023243EA01118261016210BD0168CA
:1029F0000C3151E8002F22F4907241E80023002BA3
:102A0000F5D10168143151E8002F22F0010241E8AC
:102A10000023002BF5D1016B012909D101680C318C
:102A200051E8002F22F0100241E80023002BF5D1DD
:102A3000202180F8421000210163704770B50446E0
:102A400000680169E26821F4405111430161216984
:102A5000A068E26908436169114308432168CA68B4
:102A600049F20C639A430243CA6020684169A26933
:102A700021F440711143416131492068884202D0FC
:102A80003049884202D1FEF70DFB01E0FEF7FAFA69
:102A9000E2690023192164253226B2F5004F6268ED
:102AA00028D0A0FB0101930F9200FDF791FB014696
:102AB000B0FBF5F06FF01802504301EB800006EB1D
:102AC0000010B0FBF5F000F0F002B1FBF5F002EB06
:102AD0000012B1FBF5F06FF01803584301EB8000D2
:102AE00006EB0010B0FBF5F000F00F002168104479
:102AF000886070BDA0FB010192185B41FDF768FB87
:102B00000146B0FBF5F00201B1FBF5F06FF01803E0
:102B1000584301EB800006EBC000B0FBF5F000F07D
:102B2000F80002EB4002B1FBF5F0584301EB8000E6
:102B300006EBC000B0FBF5F000F00700D6E70000A0
:102B400000100140001401402DE9F8439846174653
:102B50000D460446089E24E0701C22D0FDF7C8FFF5
:102B6000A0EB0800B0421AD8CEB12068C16849076E
:102B700017D5802D15D0402D13D00168C943090702
:102B80000FD401680025406800902046FFF72FFF12
:102B90000820606484F840500120BDE8F8830320D9
:102BA000FBE72068006835EA000004D00020B84246
:102BB000D2D00020F1E70120F9E7FEE70FB4054B82
:102BC00010B503A9044A029800F0EAF810BC5DF8B9
:102BD00014FB0000A9340008480000200907090E72
:102BE000002804DB00F1E02080F80014704700F0BA
:102BF0000F0000F1E02080F8141D704702E008C8C3
:102C0000121F08C1002AFAD170477047002001E066
:102C100001C1121F002AFBD1704700002DE9FF5FA0
:102C200082B00021DDE90430020DDDF840B003433D
:102C300018D044F61050A2F2FF32424315141198F6
:102C400001281FD0A5EB0B00401C5FEA000A4FF0E3
:102C500000064E4FDFF83891B046504615D5CAF100
:102C6000000413E0119801244AA3012801D16FEA5E
:102C70000B010298119AC0E90031C0E9024206B086
:102C8000BDE8F09FCBF10000DFE704460021404A99
:102C9000491842EB0450CDE9001012E0E00707D0DC
:102CA00032463B4640464946FDF78EFB8046894604
:102CB00032463B4610461946FDF786FB06460F4650
:102CC0006410002CEAD1DDE90401DDE90023BAF14A
:102CD000000F06DAFDF778FB42464B46FDF774FB22
:102CE00005E0FDF79AFC42464B46FDF796FC04468C
:102CF0000E460022284BFDF717FD03D84FF0FF309A
:102D0000014607E00022254B20463146FDF7B5FA83
:102D1000FDF7F2FC102409E0002C0ADB0A22002354
:102D2000FDF756FA039B30321A55641E50EA010231
:102D3000F2D1641C039AC4F111031444119A012ABC
:102D400003D0012208430DD10AE0084304D000203B
:102D50004FF0110B119072E7A3EB0B056D1E0DE008
:102D60005B4504DD4FF0000205F1010504E003DAE4
:102D70004FF00002A5F10105002AECD0029811994C
:102D8000C0E90231C0E9004579E7000000001440C5
:102D90000000F03F300000000000F0430000E03F82
:102DA0002DE9FF4F95B09A46884606460025EEE18C
:102DB000252877D100242746F94A0121039400E011
:102DC000044316F8013F203B01FA03F01042F7D10B
:102DD00030782A2811D06FF02F033078A0F130021C
:102DE000092A16D8039A44F0020402EB820203EB8C
:102DF00042021044761C0390EFE758F8042B03922C
:102E0000002A03DA504244F40054039044F00204D0
:102E1000761C30782E2816D116F8010F44F00404E1
:102E20002A280DD06FF02F023078A0F13003092B43
:102E300009D807EB870302EB4303C718761CF3E7B7
:102E400058F8047B761C30786C280FD006DC4C28B0
:102E500017D068280DD06A2814D104E0742810D047
:102E60007A280FD10DE044F400140AE044F48014F1
:102E700001E044F440147278824202D104F58014D7
:102E8000761C761C307866280BD013DC582877D057
:102E900009DC002875D04528F6D04628F4D047280C
:102EA0001AD193E118E0632835D0642879D06528D9
:102EB00012D18BE1702873D008DC6728F1D0692823
:102EC0006FD06E280DD06F2806D1ACE073282CD0BF
:102ED000752874D0782853D05246179990476D1CA6
:102EE00054E1C4F30250022809D003280DD0D8F8C9
:102EF000001004280DD00D6008F1040846E1D8F850
:102F00000010EA17C1E90052F6E7D8F800100D806A
:102F1000F2E70D70F0E718F8041B8DF800100020A0
:102F20008DF80100EB46012003E058F804BB4FF098
:102F3000FF3061074FF0000102D40DE009F10101FB
:102F40008946B9420FDA8145F8DB1BF809100029E0
:102F5000F4D108E009F1010189468142FADB1BF84E
:102F600009100029F6D103985346A0EB0907214622
:102F70003846179A00F080FA284400EB090507E06C
:102F800044E008E10DE01BF8010B52461799904709
:102F9000B9F10109F7D2534621463846179AF2E0B3
:102FA00039E00A21C4F302524FF0000B0091022ACB
:102FB00006D058F8040BC117032A09D00AE023E011
:102FC00008F1070020F00702F2E80201904605E050
:102FD00000B2C117042A01D140B2C117002906DA94
:102FE0000A460021404261EB02012D2202E0220547
:102FF00004D52B228DF80420012203E0E20701D042
:103000002022F7E7914657E00A2100E010214FF017
:10301000000B00910BE010214FF0000B44F0040472
:103020000827009103E008204FF0000B0090C4F344
:103030000252022A05D058F8040B0021032A08D0B6
:1030400008E008F1070020F00702F2E802019046CC
:1030500003E080B2042A00D1C0B24FF00009220779
:103060002AD53278702A07D0DDF800C08CF0100C19
:103070005CEA0B0C05D00EE040228DF80420012202
:1030800008E050EA010306D030238DF804308DF8B3
:10309000052002229146009B83F0080353EA0B03AC
:1030A0000AD150EA010201D1620705D530228DF81C
:1030B00004204FF001097F1E3278582A04D039A22B
:1030C0000C920CAA02920BE03BA2F9E75B46009A35
:1030D000FDF77EF80C9B9B5C029A521E02921370C5
:1030E00050EA0102F2D1029804A9081A00F1200B5B
:1030F000600702D524F4803400E001275F4502DD3B
:10310000A7EB0B0000E0002000EB0B010090039800
:103110004944401A0390E00306D453462146179AC7
:10312000039800F0A9F90544002706E001A85246DB
:10313000C05D179990476D1C7F1C4F45F6DBE0037F
:103140000CD553462146179A039800F095F905448B
:1031500004E030205246179990476D1C0099481E94
:1031600000900029F5DC08E00298029952460078A8
:10317000491C0291179990476D1CBBF10001ABF1FE
:10318000010BF1DC5BE100F065F90544761C307859
:1031900000287FF40DAE19B02846BDE8F08F00007E
:1031A000092801003031323334353637383961621D
:1031B00063646566000000003031323334353637E1
:1031C000383941424344454600000000600700D4BE
:1031D000062708F1070020F00700F0E802238046E8
:1031E00003F0004C5FEA0C0001D097A009E0200535
:1031F00001D596A005E0E00701D095A001E0AFF26F
:103200004C001390307823F0004365280CD006DC86
:10321000452809D046281DD047287FD13BE06628A5
:1032200018D067287AD136E00021112F01DB112058
:1032300000E0781CCDE9000104A90CA8FFF7EEFC22
:10324000DDE90D010C9A4FF0000B07F10109109216
:1032500000914EE04FF000400097CDE9011004A925
:103260000CA8FFF7DBFCDDE90D020C9B0F994FF07A
:10327000000B91461093009211B9791C00EB0109E3
:10328000B7EB090003D4C0F1FF3B07F10109A9EB3B
:103290000700019042E0012F00DA01270021112FE1
:1032A00001DD112000E03846CDE9000104A90CA899
:1032B000FFF7B4FCDDE90D010C9A00914FF0000B13
:1032C000B946109221070FD4009A4A4503DA914675
:1032D00001E0A9F10109B9F1010F05DD109AA9F189
:1032E0000101515C3029F4D0B84202DA10F1040F28
:1032F00003DA0121CDE9011010E0002803DC83444A
:10330000A9EB000102E0411C494500DD8946A0EB24
:103310000B00401C01904FF000400290200705D4A4
:103320000198484502DB4FF0FF30019000208DF8F6
:103330004B0002980DF14B07B0F1004F25D0022051
:103340000C902B200D90029800280CDA404202903D
:103350002D200D9007E00A210298FDF7BAF83031D0
:10336000029007F8011D0C99481E0C900029F2DC10
:1033700002980028EFD1791E0D980870307800F07F
:10338000200040F0450007F8020D11A8C01BC01D29
:1033900002901398007800B1012000EB0901019818
:1033A00001EBE071029801440398401A401E03901B
:1033B000E00306D453462146179A039800F05CF8C0
:1033C00005441398007818B15246179990476D1C20
:1033D000E00323D553462146179A039800F04CF892
:1033E00005441BE0BBF1000F07DB0098584504DDE6
:1033F0001098179910F80B0001E0179930205246E9
:10340000904701980BF1010B401E05F10105019059
:1034100004D12E205246179990476D1CB9F1000136
:10342000A9F10109DEDC05E017F8010B52461799F6
:1034300090476D1C0299481E02900029F4DC534607
:103440002146179A03989EE62D0000002B000000ED
:10345000200000002DE9F041044600251E461746D5
:10346000880404D405E039462020B0476D1C641E52
:10347000F9D52846BDE8F0812DE9F0410446002544
:103480001E469046C80301D5302700E02027880457
:1034900004D505E041463846B0476D1C641EF9D599
:1034A0002846BDE8F081000013B54FF6FF730122F6
:1034B00069460248FEF76CFC00981CBDC001002064
:1034C0001CB5FDF7B3FCFFF705F9FEF791FEFEF71B
:1034D000E7FEFEF705FFFEF743FFFEF777FFFEF777
:1034E000D1FFFEF7A9FF1A48FEF774F8FFF703F8BB
:1034F000FEF7E6FFFDF7DAF9FFF7E2F8FEF71AFE4E
:103500004FF4C876FEF7F8FD012802D0022804D057
:1035100005E03046FFF7CCF801E0FFF78BF8FDF748
:1035200031F910EE107AFDF747F910EE100AFCF7AA
:10353000BDFF04460D463846FCF7B8FF41EC100BC2
:1035400004A053EC102BCDE90045FFF737FBD9E77A
:1035500078010020533A25662C25660A00000000F9
:103560000000000000000000010203040607080933
:10357000000000000102030498350008000000204C
:103580004C000000FC2B0008E43500084C00002033
:10359000440A00000C2C000801000000100000008C
:1035A000000000000024F400000000000000000003
:1035B000000000000000000000000000000000000B
:1035C00000000000000000000000000000000000FB
:1035D00000000000000000000000000000000000EB
:0435E00000000000E7
:040000050800019559
:00000001FF
